{
  "_format": "hh-sol-artifact-1",
  "contractName": "RealEstateNFT",
  "sourceName": "contracts/RealEstateNFT.sol",
  "abi": [
    {
      "inputs": [],
      "stateMutability": "nonpayable",
      "type": "constructor"
    },
    {
      "anonymous": false,
      "inputs": [
        {
          "indexed": true,
          "internalType": "address",
          "name": "owner",
          "type": "address"
        },
        {
          "indexed": true,
          "internalType": "address",
          "name": "approved",
          "type": "address"
        },
        {
          "indexed": true,
          "internalType": "uint256",
          "name": "tokenId",
          "type": "uint256"
        }
      ],
      "name": "Approval",
      "type": "event"
    },
    {
      "anonymous": false,
      "inputs": [
        {
          "indexed": true,
          "internalType": "address",
          "name": "owner",
          "type": "address"
        },
        {
          "indexed": true,
          "internalType": "address",
          "name": "operator",
          "type": "address"
        },
        {
          "indexed": false,
          "internalType": "bool",
          "name": "approved",
          "type": "bool"
        }
      ],
      "name": "ApprovalForAll",
      "type": "event"
    },
    {
      "anonymous": false,
      "inputs": [
        {
          "indexed": false,
          "internalType": "uint256",
          "name": "_fromTokenId",
          "type": "uint256"
        },
        {
          "indexed": false,
          "internalType": "uint256",
          "name": "_toTokenId",
          "type": "uint256"
        }
      ],
      "name": "BatchMetadataUpdate",
      "type": "event"
    },
    {
      "anonymous": false,
      "inputs": [
        {
          "indexed": false,
          "internalType": "uint256",
          "name": "_tokenId",
          "type": "uint256"
        }
      ],
      "name": "MetadataUpdate",
      "type": "event"
    },
    {
      "anonymous": false,
      "inputs": [
        {
          "indexed": true,
          "internalType": "address",
          "name": "previousOwner",
          "type": "address"
        },
        {
          "indexed": true,
          "internalType": "address",
          "name": "newOwner",
          "type": "address"
        }
      ],
      "name": "OwnershipTransferred",
      "type": "event"
    },
    {
      "anonymous": false,
      "inputs": [
        {
          "indexed": true,
          "internalType": "uint256",
          "name": "tokenId",
          "type": "uint256"
        },
        {
          "indexed": false,
          "internalType": "uint256",
          "name": "price",
          "type": "uint256"
        }
      ],
      "name": "PropertyListedForSale",
      "type": "event"
    },
    {
      "anonymous": false,
      "inputs": [
        {
          "indexed": true,
          "internalType": "uint256",
          "name": "tokenId",
          "type": "uint256"
        },
        {
          "indexed": false,
          "internalType": "string",
          "name": "location",
          "type": "string"
        },
        {
          "indexed": false,
          "internalType": "uint256",
          "name": "price",
          "type": "uint256"
        }
      ],
      "name": "PropertyMinted",
      "type": "event"
    },
    {
      "anonymous": false,
      "inputs": [
        {
          "indexed": true,
          "internalType": "uint256",
          "name": "tokenId",
          "type": "uint256"
        },
        {
          "indexed": true,
          "internalType": "address",
          "name": "from",
          "type": "address"
        },
        {
          "indexed": true,
          "internalType": "address",
          "name": "to",
          "type": "address"
        },
        {
          "indexed": false,
          "internalType": "uint256",
          "name": "price",
          "type": "uint256"
        }
      ],
      "name": "PropertySold",
      "type": "event"
    },
    {
      "anonymous": false,
      "inputs": [
        {
          "indexed": true,
          "internalType": "address",
          "name": "from",
          "type": "address"
        },
        {
          "indexed": true,
          "internalType": "address",
          "name": "to",
          "type": "address"
        },
        {
          "indexed": true,
          "internalType": "uint256",
          "name": "tokenId",
          "type": "uint256"
        }
      ],
      "name": "Transfer",
      "type": "event"
    },
    {
      "inputs": [
        {
          "internalType": "address",
          "name": "to",
          "type": "address"
        },
        {
          "internalType": "uint256",
          "name": "tokenId",
          "type": "uint256"
        }
      ],
      "name": "approve",
      "outputs": [],
      "stateMutability": "nonpayable",
      "type": "function"
    },
    {
      "inputs": [
        {
          "internalType": "address",
          "name": "owner",
          "type": "address"
        }
      ],
      "name": "balanceOf",
      "outputs": [
        {
          "internalType": "uint256",
          "name": "",
          "type": "uint256"
        }
      ],
      "stateMutability": "view",
      "type": "function"
    },
    {
      "inputs": [
        {
          "internalType": "uint256",
          "name": "tokenId",
          "type": "uint256"
        }
      ],
      "name": "buyProperty",
      "outputs": [],
      "stateMutability": "payable",
      "type": "function"
    },
    {
      "inputs": [
        {
          "internalType": "uint256",
          "name": "tokenId",
          "type": "uint256"
        }
      ],
      "name": "cancelListing",
      "outputs": [],
      "stateMutability": "nonpayable",
      "type": "function"
    },
    {
      "inputs": [
        {
          "internalType": "uint256",
          "name": "tokenId",
          "type": "uint256"
        }
      ],
      "name": "getApproved",
      "outputs": [
        {
          "internalType": "address",
          "name": "",
          "type": "address"
        }
      ],
      "stateMutability": "view",
      "type": "function"
    },
    {
      "inputs": [
        {
          "internalType": "uint256",
          "name": "tokenId",
          "type": "uint256"
        }
      ],
      "name": "getProperty",
      "outputs": [
        {
          "internalType": "string",
          "name": "location",
          "type": "string"
        },
        {
          "internalType": "uint256",
          "name": "price",
          "type": "uint256"
        },
        {
          "internalType": "bool",
          "name": "isForSale",
          "type": "bool"
        },
        {
          "internalType": "address",
          "name": "owner",
          "type": "address"
        }
      ],
      "stateMutability": "view",
      "type": "function"
    },
    {
      "inputs": [
        {
          "internalType": "address",
          "name": "owner",
          "type": "address"
        },
        {
          "internalType": "address",
          "name": "operator",
          "type": "address"
        }
      ],
      "name": "isApprovedForAll",
      "outputs": [
        {
          "internalType": "bool",
          "name": "",
          "type": "bool"
        }
      ],
      "stateMutability": "view",
      "type": "function"
    },
    {
      "inputs": [
        {
          "internalType": "uint256",
          "name": "tokenId",
          "type": "uint256"
        },
        {
          "internalType": "uint256",
          "name": "price",
          "type": "uint256"
        }
      ],
      "name": "listPropertyForSale",
      "outputs": [],
      "stateMutability": "nonpayable",
      "type": "function"
    },
    {
      "inputs": [
        {
          "internalType": "address",
          "name": "to",
          "type": "address"
        },
        {
          "internalType": "string",
          "name": "location",
          "type": "string"
        },
        {
          "internalType": "uint256",
          "name": "price",
          "type": "uint256"
        },
        {
          "internalType": "string",
          "name": "tokenURI",
          "type": "string"
        }
      ],
      "name": "mintProperty",
      "outputs": [
        {
          "internalType": "uint256",
          "name": "",
          "type": "uint256"
        }
      ],
      "stateMutability": "nonpayable",
      "type": "function"
    },
    {
      "inputs": [],
      "name": "name",
      "outputs": [
        {
          "internalType": "string",
          "name": "",
          "type": "string"
        }
      ],
      "stateMutability": "view",
      "type": "function"
    },
    {
      "inputs": [],
      "name": "owner",
      "outputs": [
        {
          "internalType": "address",
          "name": "",
          "type": "address"
        }
      ],
      "stateMutability": "view",
      "type": "function"
    },
    {
      "inputs": [
        {
          "internalType": "uint256",
          "name": "tokenId",
          "type": "uint256"
        }
      ],
      "name": "ownerOf",
      "outputs": [
        {
          "internalType": "address",
          "name": "",
          "type": "address"
        }
      ],
      "stateMutability": "view",
      "type": "function"
    },
    {
      "inputs": [
        {
          "internalType": "uint256",
          "name": "",
          "type": "uint256"
        }
      ],
      "name": "properties",
      "outputs": [
        {
          "internalType": "string",
          "name": "location",
          "type": "string"
        },
        {
          "internalType": "uint256",
          "name": "price",
          "type": "uint256"
        },
        {
          "internalType": "bool",
          "name": "isForSale",
          "type": "bool"
        },
        {
          "internalType": "address",
          "name": "owner",
          "type": "address"
        }
      ],
      "stateMutability": "view",
      "type": "function"
    },
    {
      "inputs": [],
      "name": "renounceOwnership",
      "outputs": [],
      "stateMutability": "nonpayable",
      "type": "function"
    },
    {
      "inputs": [
        {
          "internalType": "address",
          "name": "from",
          "type": "address"
        },
        {
          "internalType": "address",
          "name": "to",
          "type": "address"
        },
        {
          "internalType": "uint256",
          "name": "tokenId",
          "type": "uint256"
        }
      ],
      "name": "safeTransferFrom",
      "outputs": [],
      "stateMutability": "nonpayable",
      "type": "function"
    },
    {
      "inputs": [
        {
          "internalType": "address",
          "name": "from",
          "type": "address"
        },
        {
          "internalType": "address",
          "name": "to",
          "type": "address"
        },
        {
          "internalType": "uint256",
          "name": "tokenId",
          "type": "uint256"
        },
        {
          "internalType": "bytes",
          "name": "data",
          "type": "bytes"
        }
      ],
      "name": "safeTransferFrom",
      "outputs": [],
      "stateMutability": "nonpayable",
      "type": "function"
    },
    {
      "inputs": [
        {
          "internalType": "address",
          "name": "operator",
          "type": "address"
        },
        {
          "internalType": "bool",
          "name": "approved",
          "type": "bool"
        }
      ],
      "name": "setApprovalForAll",
      "outputs": [],
      "stateMutability": "nonpayable",
      "type": "function"
    },
    {
      "inputs": [
        {
          "internalType": "bytes4",
          "name": "interfaceId",
          "type": "bytes4"
        }
      ],
      "name": "supportsInterface",
      "outputs": [
        {
          "internalType": "bool",
          "name": "",
          "type": "bool"
        }
      ],
      "stateMutability": "view",
      "type": "function"
    },
    {
      "inputs": [],
      "name": "symbol",
      "outputs": [
        {
          "internalType": "string",
          "name": "",
          "type": "string"
        }
      ],
      "stateMutability": "view",
      "type": "function"
    },
    {
      "inputs": [
        {
          "internalType": "uint256",
          "name": "tokenId",
          "type": "uint256"
        }
      ],
      "name": "tokenURI",
      "outputs": [
        {
          "internalType": "string",
          "name": "",
          "type": "string"
        }
      ],
      "stateMutability": "view",
      "type": "function"
    },
    {
      "inputs": [
        {
          "internalType": "address",
          "name": "from",
          "type": "address"
        },
        {
          "internalType": "address",
          "name": "to",
          "type": "address"
        },
        {
          "internalType": "uint256",
          "name": "tokenId",
          "type": "uint256"
        }
      ],
      "name": "transferFrom",
      "outputs": [],
      "stateMutability": "nonpayable",
      "type": "function"
    },
    {
      "inputs": [
        {
          "internalType": "address",
          "name": "newOwner",
          "type": "address"
        }
      ],
      "name": "transferOwnership",
      "outputs": [],
      "stateMutability": "nonpayable",
      "type": "function"
    }
  ],
  "bytecode": "0x60806040523480156200001157600080fd5b506040518060400160405280600f81526020017f5265616c20457374617465204e465400000000000000000000000000000000008152506040518060400160405280600581526020017f52454e465400000000000000000000000000000000000000000000000000000081525081600090816200008f919062000412565b508060019081620000a1919062000412565b505050620000c4620000b8620000ca60201b60201c565b620000d260201b60201c565b620004f9565b600033905090565b6000600760009054906101000a900473ffffffffffffffffffffffffffffffffffffffff16905081600760006101000a81548173ffffffffffffffffffffffffffffffffffffffff021916908373ffffffffffffffffffffffffffffffffffffffff1602179055508173ffffffffffffffffffffffffffffffffffffffff168173ffffffffffffffffffffffffffffffffffffffff167f8be0079c531659141344cd1fd0a4f28419497f9722a3daafe3b4186f6b6457e060405160405180910390a35050565b600081519050919050565b7f4e487b7100000000000000000000000000000000000000000000000000000000600052604160045260246000fd5b7f4e487b7100000000000000000000000000000000000000000000000000000000600052602260045260246000fd5b600060028204905060018216806200021a57607f821691505b60208210810362000230576200022f620001d2565b5b50919050565b60008190508160005260206000209050919050565b60006020601f8301049050919050565b600082821b905092915050565b6000600883026200029a7fffffffffffffffffffffffffffffffffffffffffffffffffffffffffffffffff826200025b565b620002a686836200025b565b95508019841693508086168417925050509392505050565b6000819050919050565b6000819050919050565b6000620002f3620002ed620002e784620002be565b620002c8565b620002be565b9050919050565b6000819050919050565b6200030f83620002d2565b620003276200031e82620002fa565b84845462000268565b825550505050565b600090565b6200033e6200032f565b6200034b81848462000304565b505050565b5b8181101562000373576200036760008262000334565b60018101905062000351565b5050565b601f821115620003c2576200038c8162000236565b62000397846200024b565b81016020851015620003a7578190505b620003bf620003b6856200024b565b83018262000350565b50505b505050565b600082821c905092915050565b6000620003e760001984600802620003c7565b1980831691505092915050565b6000620004028383620003d4565b9150826002028217905092915050565b6200041d8262000198565b67ffffffffffffffff811115620004395762000438620001a3565b5b62000445825462000201565b6200045282828562000377565b600060209050601f8311600181146200048a576000841562000475578287015190505b620004818582620003f4565b865550620004f1565b601f1984166200049a8662000236565b60005b82811015620004c4578489015182556001820191506020850194506020810190506200049d565b86831015620004e45784890151620004e0601f891682620003d4565b8355505b6001600288020188555050505b505050505050565b613edc80620005096000396000f3fe6080604052600436106101355760003560e01c80636fa830a6116100ab578063a22cb4651161006f578063a22cb4651461042c578063b88d4fde14610455578063c87b56dd1461047e578063e985e9c5146104bb578063f2fde38b146104f8578063f7b108081461052157610135565b80636fa830a61461036657806370a0823114610382578063715018a6146103bf5780638da5cb5b146103d657806395d89b411461040157610135565b806311993d41116100fd57806311993d411461023157806323b872dd1461026e578063305a67a81461029757806332665ffb146102c057806342842e0e146103005780636352211e1461032957610135565b806301ffc9a71461013a57806306fdde0314610177578063081812fc146101a2578063095ea7b3146101df5780630f55415b14610208575b600080fd5b34801561014657600080fd5b50610161600480360381019061015c9190612821565b610561565b60405161016e9190612869565b60405180910390f35b34801561018357600080fd5b5061018c6105c2565b6040516101999190612914565b60405180910390f35b3480156101ae57600080fd5b506101c960048036038101906101c4919061296c565b610654565b6040516101d691906129da565b60405180910390f35b3480156101eb57600080fd5b5061020660048036038101906102019190612a21565b61069a565b005b34801561021457600080fd5b5061022f600480360381019061022a9190612a61565b6107b1565b005b34801561023d57600080fd5b5061025860048036038101906102539190612bd6565b610938565b6040516102659190612c84565b60405180910390f35b34801561027a57600080fd5b5061029560048036038101906102909190612c9f565b610a8b565b005b3480156102a357600080fd5b506102be60048036038101906102b9919061296c565b610aeb565b005b3480156102cc57600080fd5b506102e760048036038101906102e2919061296c565b610c77565b6040516102f79493929190612cf2565b60405180910390f35b34801561030c57600080fd5b5061032760048036038101906103229190612c9f565b610e19565b005b34801561033557600080fd5b50610350600480360381019061034b919061296c565b610e39565b60405161035d91906129da565b60405180910390f35b610380600480360381019061037b919061296c565b610ebf565b005b34801561038e57600080fd5b506103a960048036038101906103a49190612d3e565b6111fd565b6040516103b69190612c84565b60405180910390f35b3480156103cb57600080fd5b506103d46112b4565b005b3480156103e257600080fd5b506103eb6112c8565b6040516103f891906129da565b60405180910390f35b34801561040d57600080fd5b506104166112f2565b6040516104239190612914565b60405180910390f35b34801561043857600080fd5b50610453600480360381019061044e9190612d97565b611384565b005b34801561046157600080fd5b5061047c60048036038101906104779190612e78565b61139a565b005b34801561048a57600080fd5b506104a560048036038101906104a0919061296c565b6113fc565b6040516104b29190612914565b60405180910390f35b3480156104c757600080fd5b506104e260048036038101906104dd9190612efb565b61150e565b6040516104ef9190612869565b60405180910390f35b34801561050457600080fd5b5061051f600480360381019061051a9190612d3e565b6115a2565b005b34801561052d57600080fd5b506105486004803603810190610543919061296c565b611625565b6040516105589493929190612cf2565b60405180910390f35b6000634906490660e01b7bffffffffffffffffffffffffffffffffffffffffffffffffffffffff1916827bffffffffffffffffffffffffffffffffffffffffffffffffffffffff191614806105bb57506105ba8261170a565b5b9050919050565b6060600080546105d190612f6a565b80601f01602080910402602001604051908101604052809291908181526020018280546105fd90612f6a565b801561064a5780601f1061061f5761010080835404028352916020019161064a565b820191906000526020600020905b81548152906001019060200180831161062d57829003601f168201915b5050505050905090565b600061065f826117ec565b6004600083815260200190815260200160002060009054906101000a900473ffffffffffffffffffffffffffffffffffffffff169050919050565b60006106a582610e39565b90508073ffffffffffffffffffffffffffffffffffffffff168373ffffffffffffffffffffffffffffffffffffffff1603610715576040517f08c379a000000000000000000000000000000000000000000000000000000000815260040161070c9061300d565b60405180910390fd5b8073ffffffffffffffffffffffffffffffffffffffff16610734611837565b73ffffffffffffffffffffffffffffffffffffffff16148061076357506107628161075d611837565b61150e565b5b6107a2576040517f08c379a00000000000000000000000000000000000000000000000000000000081526004016107999061309f565b60405180910390fd5b6107ac838361183f565b505050565b6107ba826118f8565b6107f9576040517f08c379a00000000000000000000000000000000000000000000000000000000081526004016107f09061310b565b60405180910390fd5b3373ffffffffffffffffffffffffffffffffffffffff1661081983610e39565b73ffffffffffffffffffffffffffffffffffffffff161461086f576040517f08c379a000000000000000000000000000000000000000000000000000000000815260040161086690613177565b60405180910390fd5b600081116108b2576040517f08c379a00000000000000000000000000000000000000000000000000000000081526004016108a9906131e3565b60405180910390fd5b60016009600084815260200190815260200160002060020160006101000a81548160ff021916908315150217905550806009600084815260200190815260200160002060010181905550817f88b3e10fc821dcf6e0c9b8b02e38f5fff401bfab2172fb035d249c01f094de7d8260405161092c9190612c84565b60405180910390a25050565b6000610942611939565b61094c60086119b7565b600061095860086119cd565b905061096486826119db565b61096e8184611bf8565b60405180608001604052808681526020018581526020016000151581526020018773ffffffffffffffffffffffffffffffffffffffff168152506009600083815260200190815260200160002060008201518160000190816109d091906133af565b506020820151816001015560408201518160020160006101000a81548160ff02191690831515021790555060608201518160020160016101000a81548173ffffffffffffffffffffffffffffffffffffffff021916908373ffffffffffffffffffffffffffffffffffffffff160217905550905050807fe7d306ae9a0874b9c04d012ebebf0cbc844e6f6e33ff2353939961ff0948721f8686604051610a77929190613481565b60405180910390a280915050949350505050565b610a9c610a96611837565b82611c9c565b610adb576040517f08c379a0000000000000000000000000000000000000000000000000000000008152600401610ad290613523565b60405180910390fd5b610ae6838383611d31565b505050565b610af4816118f8565b610b33576040517f08c379a0000000000000000000000000000000000000000000000000000000008152600401610b2a9061310b565b60405180910390fd5b3373ffffffffffffffffffffffffffffffffffffffff16610b5382610e39565b73ffffffffffffffffffffffffffffffffffffffff1614610ba9576040517f08c379a0000000000000000000000000000000000000000000000000000000008152600401610ba090613177565b60405180910390fd5b6009600082815260200190815260200160002060020160009054906101000a900460ff16610c0c576040517f08c379a0000000000000000000000000000000000000000000000000000000008152600401610c039061358f565b60405180910390fd5b60006009600083815260200190815260200160002060020160006101000a81548160ff021916908315150217905550807f88b3e10fc821dcf6e0c9b8b02e38f5fff401bfab2172fb035d249c01f094de7d6000604051610c6c91906135ea565b60405180910390a250565b60606000806000610c87856118f8565b610cc6576040517f08c379a0000000000000000000000000000000000000000000000000000000008152600401610cbd9061310b565b60405180910390fd5b600060096000878152602001908152602001600020604051806080016040529081600082018054610cf690612f6a565b80601f0160208091040260200160405190810160405280929190818152602001828054610d2290612f6a565b8015610d6f5780601f10610d4457610100808354040283529160200191610d6f565b820191906000526020600020905b815481529060010190602001808311610d5257829003601f168201915b50505050508152602001600182015481526020016002820160009054906101000a900460ff161515151581526020016002820160019054906101000a900473ffffffffffffffffffffffffffffffffffffffff1673ffffffffffffffffffffffffffffffffffffffff1673ffffffffffffffffffffffffffffffffffffffff1681525050905080600001518160200151826040015183606001519450945094509450509193509193565b610e348383836040518060200160405280600081525061139a565b505050565b600080610e458361202a565b9050600073ffffffffffffffffffffffffffffffffffffffff168173ffffffffffffffffffffffffffffffffffffffff1603610eb6576040517f08c379a0000000000000000000000000000000000000000000000000000000008152600401610ead90613651565b60405180910390fd5b80915050919050565b610ec8816118f8565b610f07576040517f08c379a0000000000000000000000000000000000000000000000000000000008152600401610efe9061310b565b60405180910390fd5b6009600082815260200190815260200160002060020160009054906101000a900460ff16610f6a576040517f08c379a0000000000000000000000000000000000000000000000000000000008152600401610f61906136bd565b60405180910390fd5b6009600082815260200190815260200160002060010154341015610fc3576040517f08c379a0000000000000000000000000000000000000000000000000000000008152600401610fba90613729565b60405180910390fd5b610fcc81610e39565b73ffffffffffffffffffffffffffffffffffffffff163373ffffffffffffffffffffffffffffffffffffffff1603611039576040517f08c379a000000000000000000000000000000000000000000000000000000000815260040161103090613795565b60405180910390fd5b600061104482610e39565b905060006009600084815260200190815260200160002060010154905060006009600085815260200190815260200160002060020160006101000a81548160ff021916908315150217905550336009600085815260200190815260200160002060020160016101000a81548173ffffffffffffffffffffffffffffffffffffffff021916908373ffffffffffffffffffffffffffffffffffffffff1602179055506110f0823385611d31565b8173ffffffffffffffffffffffffffffffffffffffff166108fc829081150290604051600060405180830381858888f19350505050158015611136573d6000803e3d6000fd5b5080341115611192573373ffffffffffffffffffffffffffffffffffffffff166108fc823461116591906137e4565b9081150290604051600060405180830381858888f19350505050158015611190573d6000803e3d6000fd5b505b3373ffffffffffffffffffffffffffffffffffffffff168273ffffffffffffffffffffffffffffffffffffffff16847fddd64180d9701c7ede08673ac8106484ff983a472929330d4fbde4e35d65cb06846040516111f09190612c84565b60405180910390a4505050565b60008073ffffffffffffffffffffffffffffffffffffffff168273ffffffffffffffffffffffffffffffffffffffff160361126d576040517f08c379a00000000000000000000000000000000000000000000000000000000081526004016112649061388a565b60405180910390fd5b600360008373ffffffffffffffffffffffffffffffffffffffff1673ffffffffffffffffffffffffffffffffffffffff168152602001908152602001600020549050919050565b6112bc611939565b6112c66000612067565b565b6000600760009054906101000a900473ffffffffffffffffffffffffffffffffffffffff16905090565b60606001805461130190612f6a565b80601f016020809104026020016040519081016040528092919081815260200182805461132d90612f6a565b801561137a5780601f1061134f5761010080835404028352916020019161137a565b820191906000526020600020905b81548152906001019060200180831161135d57829003601f168201915b5050505050905090565b61139661138f611837565b838361212d565b5050565b6113ab6113a5611837565b83611c9c565b6113ea576040517f08c379a00000000000000000000000000000000000000000000000000000000081526004016113e190613523565b60405180910390fd5b6113f684848484612299565b50505050565b6060611407826117ec565b600060066000848152602001908152602001600020805461142790612f6a565b80601f016020809104026020016040519081016040528092919081815260200182805461145390612f6a565b80156114a05780601f10611475576101008083540402835291602001916114a0565b820191906000526020600020905b81548152906001019060200180831161148357829003601f168201915b5050505050905060006114b16122f5565b905060008151036114c6578192505050611509565b6000825111156114fb5780826040516020016114e39291906138e6565b60405160208183030381529060405292505050611509565b6115048461230c565b925050505b919050565b6000600560008473ffffffffffffffffffffffffffffffffffffffff1673ffffffffffffffffffffffffffffffffffffffff16815260200190815260200160002060008373ffffffffffffffffffffffffffffffffffffffff1673ffffffffffffffffffffffffffffffffffffffff16815260200190815260200160002060009054906101000a900460ff16905092915050565b6115aa611939565b600073ffffffffffffffffffffffffffffffffffffffff168173ffffffffffffffffffffffffffffffffffffffff1603611619576040517f08c379a00000000000000000000000000000000000000000000000000000000081526004016116109061397c565b60405180910390fd5b61162281612067565b50565b600960205280600052604060002060009150905080600001805461164890612f6a565b80601f016020809104026020016040519081016040528092919081815260200182805461167490612f6a565b80156116c15780601f10611696576101008083540402835291602001916116c1565b820191906000526020600020905b8154815290600101906020018083116116a457829003601f168201915b5050505050908060010154908060020160009054906101000a900460ff16908060020160019054906101000a900473ffffffffffffffffffffffffffffffffffffffff16905084565b60007f80ac58cd000000000000000000000000000000000000000000000000000000007bffffffffffffffffffffffffffffffffffffffffffffffffffffffff1916827bffffffffffffffffffffffffffffffffffffffffffffffffffffffff191614806117d557507f5b5e139f000000000000000000000000000000000000000000000000000000007bffffffffffffffffffffffffffffffffffffffffffffffffffffffff1916827bffffffffffffffffffffffffffffffffffffffffffffffffffffffff1916145b806117e557506117e482612374565b5b9050919050565b6117f5816118f8565b611834576040517f08c379a000000000000000000000000000000000000000000000000000000000815260040161182b90613651565b60405180910390fd5b50565b600033905090565b816004600083815260200190815260200160002060006101000a81548173ffffffffffffffffffffffffffffffffffffffff021916908373ffffffffffffffffffffffffffffffffffffffff160217905550808273ffffffffffffffffffffffffffffffffffffffff166118b283610e39565b73ffffffffffffffffffffffffffffffffffffffff167f8c5be1e5ebec7d5bd14f71427d1e84f3dd0314c0f7b2291e5b200ac8c7c3b92560405160405180910390a45050565b60008073ffffffffffffffffffffffffffffffffffffffff1661191a8361202a565b73ffffffffffffffffffffffffffffffffffffffff1614159050919050565b611941611837565b73ffffffffffffffffffffffffffffffffffffffff1661195f6112c8565b73ffffffffffffffffffffffffffffffffffffffff16146119b5576040517f08c379a00000000000000000000000000000000000000000000000000000000081526004016119ac906139e8565b60405180910390fd5b565b6001816000016000828254019250508190555050565b600081600001549050919050565b600073ffffffffffffffffffffffffffffffffffffffff168273ffffffffffffffffffffffffffffffffffffffff1603611a4a576040517f08c379a0000000000000000000000000000000000000000000000000000000008152600401611a4190613a54565b60405180910390fd5b611a53816118f8565b15611a93576040517f08c379a0000000000000000000000000000000000000000000000000000000008152600401611a8a90613ac0565b60405180910390fd5b611aa16000838360016123de565b611aaa816118f8565b15611aea576040517f08c379a0000000000000000000000000000000000000000000000000000000008152600401611ae190613ac0565b60405180910390fd5b6001600360008473ffffffffffffffffffffffffffffffffffffffff1673ffffffffffffffffffffffffffffffffffffffff16815260200190815260200160002060008282540192505081905550816002600083815260200190815260200160002060006101000a81548173ffffffffffffffffffffffffffffffffffffffff021916908373ffffffffffffffffffffffffffffffffffffffff160217905550808273ffffffffffffffffffffffffffffffffffffffff16600073ffffffffffffffffffffffffffffffffffffffff167fddf252ad1be2c89b69c2b068fc378daa952ba7f163c4a11628f55a4df523b3ef60405160405180910390a4611bf46000838360016123e4565b5050565b611c01826118f8565b611c40576040517f08c379a0000000000000000000000000000000000000000000000000000000008152600401611c3790613b52565b60405180910390fd5b80600660008481526020019081526020016000209081611c6091906133af565b507ff8e1a15aba9398e019f0b49df1a4fde98ee17ae345cb5f6b5e2c27f5033e8ce782604051611c909190612c84565b60405180910390a15050565b600080611ca883610e39565b90508073ffffffffffffffffffffffffffffffffffffffff168473ffffffffffffffffffffffffffffffffffffffff161480611cea5750611ce9818561150e565b5b80611d2857508373ffffffffffffffffffffffffffffffffffffffff16611d1084610654565b73ffffffffffffffffffffffffffffffffffffffff16145b91505092915050565b8273ffffffffffffffffffffffffffffffffffffffff16611d5182610e39565b73ffffffffffffffffffffffffffffffffffffffff1614611da7576040517f08c379a0000000000000000000000000000000000000000000000000000000008152600401611d9e90613be4565b60405180910390fd5b600073ffffffffffffffffffffffffffffffffffffffff168273ffffffffffffffffffffffffffffffffffffffff1603611e16576040517f08c379a0000000000000000000000000000000000000000000000000000000008152600401611e0d90613c76565b60405180910390fd5b611e2383838360016123de565b8273ffffffffffffffffffffffffffffffffffffffff16611e4382610e39565b73ffffffffffffffffffffffffffffffffffffffff1614611e99576040517f08c379a0000000000000000000000000000000000000000000000000000000008152600401611e9090613be4565b60405180910390fd5b6004600082815260200190815260200160002060006101000a81549073ffffffffffffffffffffffffffffffffffffffff02191690556001600360008573ffffffffffffffffffffffffffffffffffffffff1673ffffffffffffffffffffffffffffffffffffffff168152602001908152602001600020600082825403925050819055506001600360008473ffffffffffffffffffffffffffffffffffffffff1673ffffffffffffffffffffffffffffffffffffffff16815260200190815260200160002060008282540192505081905550816002600083815260200190815260200160002060006101000a81548173ffffffffffffffffffffffffffffffffffffffff021916908373ffffffffffffffffffffffffffffffffffffffff160217905550808273ffffffffffffffffffffffffffffffffffffffff168473ffffffffffffffffffffffffffffffffffffffff167fddf252ad1be2c89b69c2b068fc378daa952ba7f163c4a11628f55a4df523b3ef60405160405180910390a461202583838360016123e4565b505050565b60006002600083815260200190815260200160002060009054906101000a900473ffffffffffffffffffffffffffffffffffffffff169050919050565b6000600760009054906101000a900473ffffffffffffffffffffffffffffffffffffffff16905081600760006101000a81548173ffffffffffffffffffffffffffffffffffffffff021916908373ffffffffffffffffffffffffffffffffffffffff1602179055508173ffffffffffffffffffffffffffffffffffffffff168173ffffffffffffffffffffffffffffffffffffffff167f8be0079c531659141344cd1fd0a4f28419497f9722a3daafe3b4186f6b6457e060405160405180910390a35050565b8173ffffffffffffffffffffffffffffffffffffffff168373ffffffffffffffffffffffffffffffffffffffff160361219b576040517f08c379a000000000000000000000000000000000000000000000000000000000815260040161219290613ce2565b60405180910390fd5b80600560008573ffffffffffffffffffffffffffffffffffffffff1673ffffffffffffffffffffffffffffffffffffffff16815260200190815260200160002060008473ffffffffffffffffffffffffffffffffffffffff1673ffffffffffffffffffffffffffffffffffffffff16815260200190815260200160002060006101000a81548160ff0219169083151502179055508173ffffffffffffffffffffffffffffffffffffffff168373ffffffffffffffffffffffffffffffffffffffff167f17307eab39ab6107e8899845ad3d59bd9653f200f220920489ca2b5937696c318360405161228c9190612869565b60405180910390a3505050565b6122a4848484611d31565b6122b0848484846123ea565b6122ef576040517f08c379a00000000000000000000000000000000000000000000000000000000081526004016122e690613d74565b60405180910390fd5b50505050565b606060405180602001604052806000815250905090565b6060612317826117ec565b60006123216122f5565b90506000815111612341576040518060200160405280600081525061236c565b8061234b84612571565b60405160200161235c9291906138e6565b6040516020818303038152906040525b915050919050565b60007f01ffc9a7000000000000000000000000000000000000000000000000000000007bffffffffffffffffffffffffffffffffffffffffffffffffffffffff1916827bffffffffffffffffffffffffffffffffffffffffffffffffffffffff1916149050919050565b50505050565b50505050565b600061240b8473ffffffffffffffffffffffffffffffffffffffff1661263f565b15612564578373ffffffffffffffffffffffffffffffffffffffff1663150b7a02612434611837565b8786866040518563ffffffff1660e01b81526004016124569493929190613de9565b6020604051808303816000875af192505050801561249257506040513d601f19601f8201168201806040525081019061248f9190613e4a565b60015b612514573d80600081146124c2576040519150601f19603f3d011682016040523d82523d6000602084013e6124c7565b606091505b50600081510361250c576040517f08c379a000000000000000000000000000000000000000000000000000000000815260040161250390613d74565b60405180910390fd5b805181602001fd5b63150b7a0260e01b7bffffffffffffffffffffffffffffffffffffffffffffffffffffffff1916817bffffffffffffffffffffffffffffffffffffffffffffffffffffffff191614915050612569565b600190505b949350505050565b60606000600161258084612662565b01905060008167ffffffffffffffff81111561259f5761259e612aab565b5b6040519080825280601f01601f1916602001820160405280156125d15781602001600182028036833780820191505090505b509050600082602001820190505b600115612634578080600190039150507f3031323334353637383961626364656600000000000000000000000000000000600a86061a8153600a858161262857612627613e77565b5b049450600085036125df575b819350505050919050565b6000808273ffffffffffffffffffffffffffffffffffffffff163b119050919050565b600080600090507a184f03e93ff9f4daa797ed6e38ed64bf6a1f01000000000000000083106126c0577a184f03e93ff9f4daa797ed6e38ed64bf6a1f01000000000000000083816126b6576126b5613e77565b5b0492506040810190505b6d04ee2d6d415b85acef810000000083106126fd576d04ee2d6d415b85acef810000000083816126f3576126f2613e77565b5b0492506020810190505b662386f26fc10000831061272c57662386f26fc10000838161272257612721613e77565b5b0492506010810190505b6305f5e1008310612755576305f5e100838161274b5761274a613e77565b5b0492506008810190505b612710831061277a5761271083816127705761276f613e77565b5b0492506004810190505b6064831061279d576064838161279357612792613e77565b5b0492506002810190505b600a83106127ac576001810190505b80915050919050565b6000604051905090565b600080fd5b600080fd5b60007fffffffff0000000000000000000000000000000000000000000000000000000082169050919050565b6127fe816127c9565b811461280957600080fd5b50565b60008135905061281b816127f5565b92915050565b600060208284031215612837576128366127bf565b5b60006128458482850161280c565b91505092915050565b60008115159050919050565b6128638161284e565b82525050565b600060208201905061287e600083018461285a565b92915050565b600081519050919050565b600082825260208201905092915050565b60005b838110156128be5780820151818401526020810190506128a3565b60008484015250505050565b6000601f19601f8301169050919050565b60006128e682612884565b6128f0818561288f565b93506129008185602086016128a0565b612909816128ca565b840191505092915050565b6000602082019050818103600083015261292e81846128db565b905092915050565b6000819050919050565b61294981612936565b811461295457600080fd5b50565b60008135905061296681612940565b92915050565b600060208284031215612982576129816127bf565b5b600061299084828501612957565b91505092915050565b600073ffffffffffffffffffffffffffffffffffffffff82169050919050565b60006129c482612999565b9050919050565b6129d4816129b9565b82525050565b60006020820190506129ef60008301846129cb565b92915050565b6129fe816129b9565b8114612a0957600080fd5b50565b600081359050612a1b816129f5565b92915050565b60008060408385031215612a3857612a376127bf565b5b6000612a4685828601612a0c565b9250506020612a5785828601612957565b9150509250929050565b60008060408385031215612a7857612a776127bf565b5b6000612a8685828601612957565b9250506020612a9785828601612957565b9150509250929050565b600080fd5b600080fd5b7f4e487b7100000000000000000000000000000000000000000000000000000000600052604160045260246000fd5b612ae3826128ca565b810181811067ffffffffffffffff82111715612b0257612b01612aab565b5b80604052505050565b6000612b156127b5565b9050612b218282612ada565b919050565b600067ffffffffffffffff821115612b4157612b40612aab565b5b612b4a826128ca565b9050602081019050919050565b82818337600083830152505050565b6000612b79612b7484612b26565b612b0b565b905082815260208101848484011115612b9557612b94612aa6565b5b612ba0848285612b57565b509392505050565b600082601f830112612bbd57612bbc612aa1565b5b8135612bcd848260208601612b66565b91505092915050565b60008060008060808587031215612bf057612bef6127bf565b5b6000612bfe87828801612a0c565b945050602085013567ffffffffffffffff811115612c1f57612c1e6127c4565b5b612c2b87828801612ba8565b9350506040612c3c87828801612957565b925050606085013567ffffffffffffffff811115612c5d57612c5c6127c4565b5b612c6987828801612ba8565b91505092959194509250565b612c7e81612936565b82525050565b6000602082019050612c996000830184612c75565b92915050565b600080600060608486031215612cb857612cb76127bf565b5b6000612cc686828701612a0c565b9350506020612cd786828701612a0c565b9250506040612ce886828701612957565b9150509250925092565b60006080820190508181036000830152612d0c81876128db565b9050612d1b6020830186612c75565b612d28604083018561285a565b612d3560608301846129cb565b95945050505050565b600060208284031215612d5457612d536127bf565b5b6000612d6284828501612a0c565b91505092915050565b612d748161284e565b8114612d7f57600080fd5b50565b600081359050612d9181612d6b565b92915050565b60008060408385031215612dae57612dad6127bf565b5b6000612dbc85828601612a0c565b9250506020612dcd85828601612d82565b9150509250929050565b600067ffffffffffffffff821115612df257612df1612aab565b5b612dfb826128ca565b9050602081019050919050565b6000612e1b612e1684612dd7565b612b0b565b905082815260208101848484011115612e3757612e36612aa6565b5b612e42848285612b57565b509392505050565b600082601f830112612e5f57612e5e612aa1565b5b8135612e6f848260208601612e08565b91505092915050565b60008060008060808587031215612e9257612e916127bf565b5b6000612ea087828801612a0c565b9450506020612eb187828801612a0c565b9350506040612ec287828801612957565b925050606085013567ffffffffffffffff811115612ee357612ee26127c4565b5b612eef87828801612e4a565b91505092959194509250565b60008060408385031215612f1257612f116127bf565b5b6000612f2085828601612a0c565b9250506020612f3185828601612a0c565b9150509250929050565b7f4e487b7100000000000000000000000000000000000000000000000000000000600052602260045260246000fd5b60006002820490506001821680612f8257607f821691505b602082108103612f9557612f94612f3b565b5b50919050565b7f4552433732313a20617070726f76616c20746f2063757272656e74206f776e6560008201527f7200000000000000000000000000000000000000000000000000000000000000602082015250565b6000612ff760218361288f565b915061300282612f9b565b604082019050919050565b6000602082019050818103600083015261302681612fea565b9050919050565b7f4552433732313a20617070726f76652063616c6c6572206973206e6f7420746f60008201527f6b656e206f776e6572206f7220617070726f76656420666f7220616c6c000000602082015250565b6000613089603d8361288f565b91506130948261302d565b604082019050919050565b600060208201905081810360008301526130b88161307c565b9050919050565b7f50726f706572747920646f6573206e6f74206578697374000000000000000000600082015250565b60006130f560178361288f565b9150613100826130bf565b602082019050919050565b60006020820190508181036000830152613124816130e8565b9050919050565b7f4e6f7420746865206f776e657200000000000000000000000000000000000000600082015250565b6000613161600d8361288f565b915061316c8261312b565b602082019050919050565b6000602082019050818103600083015261319081613154565b9050919050565b7f5072696365206d7573742062652067726561746572207468616e203000000000600082015250565b60006131cd601c8361288f565b91506131d882613197565b602082019050919050565b600060208201905081810360008301526131fc816131c0565b9050919050565b60008190508160005260206000209050919050565b60006020601f8301049050919050565b600082821b905092915050565b6000600883026132657fffffffffffffffffffffffffffffffffffffffffffffffffffffffffffffffff82613228565b61326f8683613228565b95508019841693508086168417925050509392505050565b6000819050919050565b60006132ac6132a76132a284612936565b613287565b612936565b9050919050565b6000819050919050565b6132c683613291565b6132da6132d2826132b3565b848454613235565b825550505050565b600090565b6132ef6132e2565b6132fa8184846132bd565b505050565b5b8181101561331e576133136000826132e7565b600181019050613300565b5050565b601f8211156133635761333481613203565b61333d84613218565b8101602085101561334c578190505b61336061335885613218565b8301826132ff565b50505b505050565b600082821c905092915050565b600061338660001984600802613368565b1980831691505092915050565b600061339f8383613375565b9150826002028217905092915050565b6133b882612884565b67ffffffffffffffff8111156133d1576133d0612aab565b5b6133db8254612f6a565b6133e6828285613322565b600060209050601f8311600181146134195760008415613407578287015190505b6134118582613393565b865550613479565b601f19841661342786613203565b60005b8281101561344f5784890151825560018201915060208501945060208101905061342a565b8683101561346c5784890151613468601f891682613375565b8355505b6001600288020188555050505b505050505050565b6000604082019050818103600083015261349b81856128db565b90506134aa6020830184612c75565b9392505050565b7f4552433732313a2063616c6c6572206973206e6f7420746f6b656e206f776e6560008201527f72206f7220617070726f76656400000000000000000000000000000000000000602082015250565b600061350d602d8361288f565b9150613518826134b1565b604082019050919050565b6000602082019050818103600083015261353c81613500565b9050919050565b7f50726f7065727479206e6f74206c697374656420666f722073616c6500000000600082015250565b6000613579601c8361288f565b915061358482613543565b602082019050919050565b600060208201905081810360008301526135a88161356c565b9050919050565b6000819050919050565b60006135d46135cf6135ca846135af565b613287565b612936565b9050919050565b6135e4816135b9565b82525050565b60006020820190506135ff60008301846135db565b92915050565b7f4552433732313a20696e76616c696420746f6b656e2049440000000000000000600082015250565b600061363b60188361288f565b915061364682613605565b602082019050919050565b6000602082019050818103600083015261366a8161362e565b9050919050565b7f50726f7065727479206e6f7420666f722073616c650000000000000000000000600082015250565b60006136a760158361288f565b91506136b282613671565b602082019050919050565b600060208201905081810360008301526136d68161369a565b9050919050565b7f496e73756666696369656e74207061796d656e74000000000000000000000000600082015250565b600061371360148361288f565b915061371e826136dd565b602082019050919050565b6000602082019050818103600083015261374281613706565b9050919050565b7f416c726561647920746865206f776e6572000000000000000000000000000000600082015250565b600061377f60118361288f565b915061378a82613749565b602082019050919050565b600060208201905081810360008301526137ae81613772565b9050919050565b7f4e487b7100000000000000000000000000000000000000000000000000000000600052601160045260246000fd5b60006137ef82612936565b91506137fa83612936565b9250828203905081811115613812576138116137b5565b5b92915050565b7f4552433732313a2061646472657373207a65726f206973206e6f74206120766160008201527f6c6964206f776e65720000000000000000000000000000000000000000000000602082015250565b600061387460298361288f565b915061387f82613818565b604082019050919050565b600060208201905081810360008301526138a381613867565b9050919050565b600081905092915050565b60006138c082612884565b6138ca81856138aa565b93506138da8185602086016128a0565b80840191505092915050565b60006138f282856138b5565b91506138fe82846138b5565b91508190509392505050565b7f4f776e61626c653a206e6577206f776e657220697320746865207a65726f206160008201527f6464726573730000000000000000000000000000000000000000000000000000602082015250565b600061396660268361288f565b91506139718261390a565b604082019050919050565b6000602082019050818103600083015261399581613959565b9050919050565b7f4f776e61626c653a2063616c6c6572206973206e6f7420746865206f776e6572600082015250565b60006139d260208361288f565b91506139dd8261399c565b602082019050919050565b60006020820190508181036000830152613a01816139c5565b9050919050565b7f4552433732313a206d696e7420746f20746865207a65726f2061646472657373600082015250565b6000613a3e60208361288f565b9150613a4982613a08565b602082019050919050565b60006020820190508181036000830152613a6d81613a31565b9050919050565b7f4552433732313a20746f6b656e20616c7265616479206d696e74656400000000600082015250565b6000613aaa601c8361288f565b9150613ab582613a74565b602082019050919050565b60006020820190508181036000830152613ad981613a9d565b9050919050565b7f45524337323155524953746f726167653a2055524920736574206f66206e6f6e60008201527f6578697374656e7420746f6b656e000000000000000000000000000000000000602082015250565b6000613b3c602e8361288f565b9150613b4782613ae0565b604082019050919050565b60006020820190508181036000830152613b6b81613b2f565b9050919050565b7f4552433732313a207472616e736665722066726f6d20696e636f72726563742060008201527f6f776e6572000000000000000000000000000000000000000000000000000000602082015250565b6000613bce60258361288f565b9150613bd982613b72565b604082019050919050565b60006020820190508181036000830152613bfd81613bc1565b9050919050565b7f4552433732313a207472616e7366657220746f20746865207a65726f2061646460008201527f7265737300000000000000000000000000000000000000000000000000000000602082015250565b6000613c6060248361288f565b9150613c6b82613c04565b604082019050919050565b60006020820190508181036000830152613c8f81613c53565b9050919050565b7f4552433732313a20617070726f766520746f2063616c6c657200000000000000600082015250565b6000613ccc60198361288f565b9150613cd782613c96565b602082019050919050565b60006020820190508181036000830152613cfb81613cbf565b9050919050565b7f4552433732313a207472616e7366657220746f206e6f6e20455243373231526560008201527f63656976657220696d706c656d656e7465720000000000000000000000000000602082015250565b6000613d5e60328361288f565b9150613d6982613d02565b604082019050919050565b60006020820190508181036000830152613d8d81613d51565b9050919050565b600081519050919050565b600082825260208201905092915050565b6000613dbb82613d94565b613dc58185613d9f565b9350613dd58185602086016128a0565b613dde816128ca565b840191505092915050565b6000608082019050613dfe60008301876129cb565b613e0b60208301866129cb565b613e186040830185612c75565b8181036060830152613e2a8184613db0565b905095945050505050565b600081519050613e44816127f5565b92915050565b600060208284031215613e6057613e5f6127bf565b5b6000613e6e84828501613e35565b91505092915050565b7f4e487b7100000000000000000000000000000000000000000000000000000000600052601260045260246000fdfea26469706673582212208d2b82fef67e6155b0cc4b7c5e67f664efc70815ca132d19665899f3766af3aa64736f6c63430008130033",
  "linkReferences": {},
  "deployedLinkReferences": {}
}