{
  "_format": "hh-sol-artifact-1",
  "contractName": "RealEstateToken",
  "sourceName": "contracts/RealEstateToken.sol",
  "abi": [
    {
      "inputs": [],
      "stateMutability": "nonpayable",
      "type": "constructor"
    },
    {
      "anonymous": false,
      "inputs": [
        {
          "indexed": true,
          "internalType": "address",
          "name": "owner",
          "type": "address"
        },
        {
          "indexed": true,
          "internalType": "address",
          "name": "spender",
          "type": "address"
        },
        {
          "indexed": false,
          "internalType": "uint256",
          "name": "value",
          "type": "uint256"
        }
      ],
      "name": "Approval",
      "type": "event"
    },
    {
      "anonymous": false,
      "inputs": [
        {
          "indexed": true,
          "internalType": "address",
          "name": "previousOwner",
          "type": "address"
        },
        {
          "indexed": true,
          "internalType": "address",
          "name": "newOwner",
          "type": "address"
        }
      ],
      "name": "OwnershipTransferred",
      "type": "event"
    },
    {
      "anonymous": false,
      "inputs": [
        {
          "indexed": true,
          "internalType": "uint256",
          "name": "propertyId",
          "type": "uint256"
        },
        {
          "indexed": false,
          "internalType": "uint256",
          "name": "supply",
          "type": "uint256"
        },
        {
          "indexed": false,
          "internalType": "uint256",
          "name": "pricePerToken",
          "type": "uint256"
        }
      ],
      "name": "PropertyTokenized",
      "type": "event"
    },
    {
      "anonymous": false,
      "inputs": [
        {
          "indexed": true,
          "internalType": "address",
          "name": "buyer",
          "type": "address"
        },
        {
          "indexed": true,
          "internalType": "uint256",
          "name": "propertyId",
          "type": "uint256"
        },
        {
          "indexed": false,
          "internalType": "uint256",
          "name": "amount",
          "type": "uint256"
        }
      ],
      "name": "TokensPurchased",
      "type": "event"
    },
    {
      "anonymous": false,
      "inputs": [
        {
          "indexed": true,
          "internalType": "address",
          "name": "from",
          "type": "address"
        },
        {
          "indexed": true,
          "internalType": "address",
          "name": "to",
          "type": "address"
        },
        {
          "indexed": false,
          "internalType": "uint256",
          "name": "value",
          "type": "uint256"
        }
      ],
      "name": "Transfer",
      "type": "event"
    },
    {
      "inputs": [
        {
          "internalType": "address",
          "name": "owner",
          "type": "address"
        },
        {
          "internalType": "address",
          "name": "spender",
          "type": "address"
        }
      ],
      "name": "allowance",
      "outputs": [
        {
          "internalType": "uint256",
          "name": "",
          "type": "uint256"
        }
      ],
      "stateMutability": "view",
      "type": "function"
    },
    {
      "inputs": [
        {
          "internalType": "address",
          "name": "spender",
          "type": "address"
        },
        {
          "internalType": "uint256",
          "name": "amount",
          "type": "uint256"
        }
      ],
      "name": "approve",
      "outputs": [
        {
          "internalType": "bool",
          "name": "",
          "type": "bool"
        }
      ],
      "stateMutability": "nonpayable",
      "type": "function"
    },
    {
      "inputs": [
        {
          "internalType": "address",
          "name": "account",
          "type": "address"
        }
      ],
      "name": "balanceOf",
      "outputs": [
        {
          "internalType": "uint256",
          "name": "",
          "type": "uint256"
        }
      ],
      "stateMutability": "view",
      "type": "function"
    },
    {
      "inputs": [],
      "name": "decimals",
      "outputs": [
        {
          "internalType": "uint8",
          "name": "",
          "type": "uint8"
        }
      ],
      "stateMutability": "view",
      "type": "function"
    },
    {
      "inputs": [
        {
          "internalType": "address",
          "name": "spender",
          "type": "address"
        },
        {
          "internalType": "uint256",
          "name": "subtractedValue",
          "type": "uint256"
        }
      ],
      "name": "decreaseAllowance",
      "outputs": [
        {
          "internalType": "bool",
          "name": "",
          "type": "bool"
        }
      ],
      "stateMutability": "nonpayable",
      "type": "function"
    },
    {
      "inputs": [
        {
          "internalType": "uint256",
          "name": "propertyId",
          "type": "uint256"
        }
      ],
      "name": "getPropertyDetails",
      "outputs": [
        {
          "internalType": "bool",
          "name": "exists",
          "type": "bool"
        },
        {
          "internalType": "uint256",
          "name": "supply",
          "type": "uint256"
        },
        {
          "internalType": "uint256",
          "name": "pricePerToken",
          "type": "uint256"
        },
        {
          "internalType": "uint256",
          "name": "availableTokens",
          "type": "uint256"
        }
      ],
      "stateMutability": "view",
      "type": "function"
    },
    {
      "inputs": [
        {
          "internalType": "address",
          "name": "spender",
          "type": "address"
        },
        {
          "internalType": "uint256",
          "name": "addedValue",
          "type": "uint256"
        }
      ],
      "name": "increaseAllowance",
      "outputs": [
        {
          "internalType": "bool",
          "name": "",
          "type": "bool"
        }
      ],
      "stateMutability": "nonpayable",
      "type": "function"
    },
    {
      "inputs": [],
      "name": "name",
      "outputs": [
        {
          "internalType": "string",
          "name": "",
          "type": "string"
        }
      ],
      "stateMutability": "view",
      "type": "function"
    },
    {
      "inputs": [],
      "name": "owner",
      "outputs": [
        {
          "internalType": "address",
          "name": "",
          "type": "address"
        }
      ],
      "stateMutability": "view",
      "type": "function"
    },
    {
      "inputs": [
        {
          "internalType": "uint256",
          "name": "",
          "type": "uint256"
        }
      ],
      "name": "propertyExists",
      "outputs": [
        {
          "internalType": "bool",
          "name": "",
          "type": "bool"
        }
      ],
      "stateMutability": "view",
      "type": "function"
    },
    {
      "inputs": [
        {
          "internalType": "uint256",
          "name": "",
          "type": "uint256"
        }
      ],
      "name": "propertyToPrice",
      "outputs": [
        {
          "internalType": "uint256",
          "name": "",
          "type": "uint256"
        }
      ],
      "stateMutability": "view",
      "type": "function"
    },
    {
      "inputs": [
        {
          "internalType": "uint256",
          "name": "",
          "type": "uint256"
        }
      ],
      "name": "propertyToSupply",
      "outputs": [
        {
          "internalType": "uint256",
          "name": "",
          "type": "uint256"
        }
      ],
      "stateMutability": "view",
      "type": "function"
    },
    {
      "inputs": [
        {
          "internalType": "uint256",
          "name": "propertyId",
          "type": "uint256"
        },
        {
          "internalType": "uint256",
          "name": "amount",
          "type": "uint256"
        }
      ],
      "name": "purchaseTokens",
      "outputs": [],
      "stateMutability": "payable",
      "type": "function"
    },
    {
      "inputs": [],
      "name": "renounceOwnership",
      "outputs": [],
      "stateMutability": "nonpayable",
      "type": "function"
    },
    {
      "inputs": [],
      "name": "symbol",
      "outputs": [
        {
          "internalType": "string",
          "name": "",
          "type": "string"
        }
      ],
      "stateMutability": "view",
      "type": "function"
    },
    {
      "inputs": [
        {
          "internalType": "uint256",
          "name": "propertyId",
          "type": "uint256"
        },
        {
          "internalType": "uint256",
          "name": "supply",
          "type": "uint256"
        },
        {
          "internalType": "uint256",
          "name": "pricePerToken",
          "type": "uint256"
        }
      ],
      "name": "tokenizeProperty",
      "outputs": [],
      "stateMutability": "nonpayable",
      "type": "function"
    },
    {
      "inputs": [],
      "name": "totalSupply",
      "outputs": [
        {
          "internalType": "uint256",
          "name": "",
          "type": "uint256"
        }
      ],
      "stateMutability": "view",
      "type": "function"
    },
    {
      "inputs": [
        {
          "internalType": "address",
          "name": "to",
          "type": "address"
        },
        {
          "internalType": "uint256",
          "name": "amount",
          "type": "uint256"
        }
      ],
      "name": "transfer",
      "outputs": [
        {
          "internalType": "bool",
          "name": "",
          "type": "bool"
        }
      ],
      "stateMutability": "nonpayable",
      "type": "function"
    },
    {
      "inputs": [
        {
          "internalType": "address",
          "name": "from",
          "type": "address"
        },
        {
          "internalType": "address",
          "name": "to",
          "type": "address"
        },
        {
          "internalType": "uint256",
          "name": "amount",
          "type": "uint256"
        }
      ],
      "name": "transferFrom",
      "outputs": [
        {
          "internalType": "bool",
          "name": "",
          "type": "bool"
        }
      ],
      "stateMutability": "nonpayable",
      "type": "function"
    },
    {
      "inputs": [
        {
          "internalType": "address",
          "name": "newOwner",
          "type": "address"
        }
      ],
      "name": "transferOwnership",
      "outputs": [],
      "stateMutability": "nonpayable",
      "type": "function"
    },
    {
      "inputs": [],
      "name": "withdrawFunds",
      "outputs": [],
      "stateMutability": "nonpayable",
      "type": "function"
    }
  ],
  "bytecode": "0x60806040523480156200001157600080fd5b506040518060400160405280601181526020017f5265616c2045737461746520546f6b656e0000000000000000000000000000008152506040518060400160405280600381526020017f524554000000000000000000000000000000000000000000000000000000000081525081600390816200008f919062000412565b508060049081620000a1919062000412565b505050620000c4620000b8620000ca60201b60201c565b620000d260201b60201c565b620004f9565b600033905090565b6000600560009054906101000a900473ffffffffffffffffffffffffffffffffffffffff16905081600560006101000a81548173ffffffffffffffffffffffffffffffffffffffff021916908373ffffffffffffffffffffffffffffffffffffffff1602179055508173ffffffffffffffffffffffffffffffffffffffff168173ffffffffffffffffffffffffffffffffffffffff167f8be0079c531659141344cd1fd0a4f28419497f9722a3daafe3b4186f6b6457e060405160405180910390a35050565b600081519050919050565b7f4e487b7100000000000000000000000000000000000000000000000000000000600052604160045260246000fd5b7f4e487b7100000000000000000000000000000000000000000000000000000000600052602260045260246000fd5b600060028204905060018216806200021a57607f821691505b60208210810362000230576200022f620001d2565b5b50919050565b60008190508160005260206000209050919050565b60006020601f8301049050919050565b600082821b905092915050565b6000600883026200029a7fffffffffffffffffffffffffffffffffffffffffffffffffffffffffffffffff826200025b565b620002a686836200025b565b95508019841693508086168417925050509392505050565b6000819050919050565b6000819050919050565b6000620002f3620002ed620002e784620002be565b620002c8565b620002be565b9050919050565b6000819050919050565b6200030f83620002d2565b620003276200031e82620002fa565b84845462000268565b825550505050565b600090565b6200033e6200032f565b6200034b81848462000304565b505050565b5b8181101562000373576200036760008262000334565b60018101905062000351565b5050565b601f821115620003c2576200038c8162000236565b62000397846200024b565b81016020851015620003a7578190505b620003bf620003b6856200024b565b83018262000350565b50505b505050565b600082821c905092915050565b6000620003e760001984600802620003c7565b1980831691505092915050565b6000620004028383620003d4565b9150826002028217905092915050565b6200041d8262000198565b67ffffffffffffffff811115620004395762000438620001a3565b5b62000445825462000201565b6200045282828562000377565b600060209050601f8311600181146200048a576000841562000475578287015190505b620004818582620003f4565b865550620004f1565b601f1984166200049a8662000236565b60005b82811015620004c4578489015182556001820191506020850194506020810190506200049d565b86831015620004e45784890151620004e0601f891682620003d4565b8355505b6001600288020188555050505b505050505050565b6125e680620005096000396000f3fe60806040526004361061012a5760003560e01c80634a164732116100ab57806395d89b411161006f57806395d89b4114610410578063997425081461043b578063a457c2d714610464578063a9059cbb146104a1578063dd62ed3e146104de578063f2fde38b1461051b5761012a565b80634a1647321461033857806370a0823114610375578063715018a6146103b25780638bf0af3e146103c95780638da5cb5b146103e55761012a565b806323b872dd116100f257806323b872dd1461023f57806324600fc31461027c578063249f4b9b14610293578063313ce567146102d057806339509351146102fb5761012a565b806306fdde031461012f5780630953e6371461015a578063095ea7b314610197578063126dbe43146101d457806318160ddd14610214575b600080fd5b34801561013b57600080fd5b50610144610544565b604051610151919061164d565b60405180910390f35b34801561016657600080fd5b50610181600480360381019061017c91906116aa565b6105d6565b60405161018e91906116e6565b60405180910390f35b3480156101a357600080fd5b506101be60048036038101906101b9919061175f565b6105ee565b6040516101cb91906117ba565b60405180910390f35b3480156101e057600080fd5b506101fb60048036038101906101f691906116aa565b610611565b60405161020b94939291906117d5565b60405180910390f35b34801561022057600080fd5b50610229610678565b60405161023691906116e6565b60405180910390f35b34801561024b57600080fd5b506102666004803603810190610261919061181a565b610682565b60405161027391906117ba565b60405180910390f35b34801561028857600080fd5b506102916106b1565b005b34801561029f57600080fd5b506102ba60048036038101906102b591906116aa565b610752565b6040516102c791906116e6565b60405180910390f35b3480156102dc57600080fd5b506102e561076a565b6040516102f29190611889565b60405180910390f35b34801561030757600080fd5b50610322600480360381019061031d919061175f565b610773565b60405161032f91906117ba565b60405180910390f35b34801561034457600080fd5b5061035f600480360381019061035a91906116aa565b6107aa565b60405161036c91906117ba565b60405180910390f35b34801561038157600080fd5b5061039c600480360381019061039791906118a4565b6107ca565b6040516103a991906116e6565b60405180910390f35b3480156103be57600080fd5b506103c7610812565b005b6103e360048036038101906103de91906118d1565b610826565b005b3480156103f157600080fd5b506103fa610a52565b6040516104079190611920565b60405180910390f35b34801561041c57600080fd5b50610425610a7c565b604051610432919061164d565b60405180910390f35b34801561044757600080fd5b50610462600480360381019061045d919061193b565b610b0e565b005b34801561047057600080fd5b5061048b6004803603810190610486919061175f565b610ca2565b60405161049891906117ba565b60405180910390f35b3480156104ad57600080fd5b506104c860048036038101906104c3919061175f565b610d19565b6040516104d591906117ba565b60405180910390f35b3480156104ea57600080fd5b506105056004803603810190610500919061198e565b610d3c565b60405161051291906116e6565b60405180910390f35b34801561052757600080fd5b50610542600480360381019061053d91906118a4565b610dc3565b005b606060038054610553906119fd565b80601f016020809104026020016040519081016040528092919081815260200182805461057f906119fd565b80156105cc5780601f106105a1576101008083540402835291602001916105cc565b820191906000526020600020905b8154815290600101906020018083116105af57829003601f168201915b5050505050905090565b60076020528060005260406000206000915090505481565b6000806105f9610e46565b9050610606818585610e4e565b600191505092915050565b6000806000806008600086815260200190815260200160002060009054906101000a900460ff1660066000878152602001908152602001600020546007600088815260200190815260200160002054610669306107ca565b93509350935093509193509193565b6000600254905090565b60008061068d610e46565b905061069a858285611017565b6106a58585856110a3565b60019150509392505050565b6106b9611319565b600047905060008111610701576040517f08c379a00000000000000000000000000000000000000000000000000000000081526004016106f890611a7a565b60405180910390fd5b610709610a52565b73ffffffffffffffffffffffffffffffffffffffff166108fc829081150290604051600060405180830381858888f1935050505015801561074e573d6000803e3d6000fd5b5050565b60066020528060005260406000206000915090505481565b60006012905090565b60008061077e610e46565b905061079f8185856107908589610d3c565b61079a9190611ac9565b610e4e565b600191505092915050565b60086020528060005260406000206000915054906101000a900460ff1681565b60008060008373ffffffffffffffffffffffffffffffffffffffff1673ffffffffffffffffffffffffffffffffffffffff168152602001908152602001600020549050919050565b61081a611319565b6108246000611397565b565b6008600083815260200190815260200160002060009054906101000a900460ff16610886576040517f08c379a000000000000000000000000000000000000000000000000000000000815260040161087d90611b49565b60405180910390fd5b600081116108c9576040517f08c379a00000000000000000000000000000000000000000000000000000000081526004016108c090611bb5565b60405180910390fd5b806108d3306107ca565b1015610914576040517f08c379a000000000000000000000000000000000000000000000000000000000815260040161090b90611c21565b60405180910390fd5b600061091e61076a565b600a61092a9190611d74565b6007600085815260200190815260200160002054836109499190611dbf565b6109539190611e30565b905080341015610998576040517f08c379a000000000000000000000000000000000000000000000000000000000815260040161098f90611ead565b60405180910390fd5b6109a33033846110a3565b803411156109fe573373ffffffffffffffffffffffffffffffffffffffff166108fc82346109d19190611ecd565b9081150290604051600060405180830381858888f193505050501580156109fc573d6000803e3d6000fd5b505b823373ffffffffffffffffffffffffffffffffffffffff167f8fafebcaf9d154343dad25669bfa277f4fbacd7ac6b0c4fed522580e040a0f3384604051610a4591906116e6565b60405180910390a3505050565b6000600560009054906101000a900473ffffffffffffffffffffffffffffffffffffffff16905090565b606060048054610a8b906119fd565b80601f0160208091040260200160405190810160405280929190818152602001828054610ab7906119fd565b8015610b045780601f10610ad957610100808354040283529160200191610b04565b820191906000526020600020905b815481529060010190602001808311610ae757829003601f168201915b5050505050905090565b610b16611319565b6008600084815260200190815260200160002060009054906101000a900460ff1615610b77576040517f08c379a0000000000000000000000000000000000000000000000000000000008152600401610b6e90611f4d565b60405180910390fd5b60008211610bba576040517f08c379a0000000000000000000000000000000000000000000000000000000008152600401610bb190611fb9565b60405180910390fd5b60008111610bfd576040517f08c379a0000000000000000000000000000000000000000000000000000000008152600401610bf490612025565b60405180910390fd5b81600660008581526020019081526020016000208190555080600760008581526020019081526020016000208190555060016008600085815260200190815260200160002060006101000a81548160ff021916908315150217905550610c63308361145d565b827f9272f3a7f486b8aaf17849dbfb2291fa69a709ba3f6972c15bff5406b9e6a0cc8383604051610c95929190612045565b60405180910390a2505050565b600080610cad610e46565b90506000610cbb8286610d3c565b905083811015610d00576040517f08c379a0000000000000000000000000000000000000000000000000000000008152600401610cf7906120e0565b60405180910390fd5b610d0d8286868403610e4e565b60019250505092915050565b600080610d24610e46565b9050610d318185856110a3565b600191505092915050565b6000600160008473ffffffffffffffffffffffffffffffffffffffff1673ffffffffffffffffffffffffffffffffffffffff16815260200190815260200160002060008373ffffffffffffffffffffffffffffffffffffffff1673ffffffffffffffffffffffffffffffffffffffff16815260200190815260200160002054905092915050565b610dcb611319565b600073ffffffffffffffffffffffffffffffffffffffff168173ffffffffffffffffffffffffffffffffffffffff1603610e3a576040517f08c379a0000000000000000000000000000000000000000000000000000000008152600401610e3190612172565b60405180910390fd5b610e4381611397565b50565b600033905090565b600073ffffffffffffffffffffffffffffffffffffffff168373ffffffffffffffffffffffffffffffffffffffff1603610ebd576040517f08c379a0000000000000000000000000000000000000000000000000000000008152600401610eb490612204565b60405180910390fd5b600073ffffffffffffffffffffffffffffffffffffffff168273ffffffffffffffffffffffffffffffffffffffff1603610f2c576040517f08c379a0000000000000000000000000000000000000000000000000000000008152600401610f2390612296565b60405180910390fd5b80600160008573ffffffffffffffffffffffffffffffffffffffff1673ffffffffffffffffffffffffffffffffffffffff16815260200190815260200160002060008473ffffffffffffffffffffffffffffffffffffffff1673ffffffffffffffffffffffffffffffffffffffff168152602001908152602001600020819055508173ffffffffffffffffffffffffffffffffffffffff168373ffffffffffffffffffffffffffffffffffffffff167f8c5be1e5ebec7d5bd14f71427d1e84f3dd0314c0f7b2291e5b200ac8c7c3b9258360405161100a91906116e6565b60405180910390a3505050565b60006110238484610d3c565b90507fffffffffffffffffffffffffffffffffffffffffffffffffffffffffffffffff811461109d578181101561108f576040517f08c379a000000000000000000000000000000000000000000000000000000000815260040161108690612302565b60405180910390fd5b61109c8484848403610e4e565b5b50505050565b600073ffffffffffffffffffffffffffffffffffffffff168373ffffffffffffffffffffffffffffffffffffffff1603611112576040517f08c379a000000000000000000000000000000000000000000000000000000000815260040161110990612394565b60405180910390fd5b600073ffffffffffffffffffffffffffffffffffffffff168273ffffffffffffffffffffffffffffffffffffffff1603611181576040517f08c379a000000000000000000000000000000000000000000000000000000000815260040161117890612426565b60405180910390fd5b61118c8383836115b3565b60008060008573ffffffffffffffffffffffffffffffffffffffff1673ffffffffffffffffffffffffffffffffffffffff16815260200190815260200160002054905081811015611212576040517f08c379a0000000000000000000000000000000000000000000000000000000008152600401611209906124b8565b60405180910390fd5b8181036000808673ffffffffffffffffffffffffffffffffffffffff1673ffffffffffffffffffffffffffffffffffffffff16815260200190815260200160002081905550816000808573ffffffffffffffffffffffffffffffffffffffff1673ffffffffffffffffffffffffffffffffffffffff168152602001908152602001600020600082825401925050819055508273ffffffffffffffffffffffffffffffffffffffff168473ffffffffffffffffffffffffffffffffffffffff167fddf252ad1be2c89b69c2b068fc378daa952ba7f163c4a11628f55a4df523b3ef8460405161130091906116e6565b60405180910390a36113138484846115b8565b50505050565b611321610e46565b73ffffffffffffffffffffffffffffffffffffffff1661133f610a52565b73ffffffffffffffffffffffffffffffffffffffff1614611395576040517f08c379a000000000000000000000000000000000000000000000000000000000815260040161138c90612524565b60405180910390fd5b565b6000600560009054906101000a900473ffffffffffffffffffffffffffffffffffffffff16905081600560006101000a81548173ffffffffffffffffffffffffffffffffffffffff021916908373ffffffffffffffffffffffffffffffffffffffff1602179055508173ffffffffffffffffffffffffffffffffffffffff168173ffffffffffffffffffffffffffffffffffffffff167f8be0079c531659141344cd1fd0a4f28419497f9722a3daafe3b4186f6b6457e060405160405180910390a35050565b600073ffffffffffffffffffffffffffffffffffffffff168273ffffffffffffffffffffffffffffffffffffffff16036114cc576040517f08c379a00000000000000000000000000000000000000000000000000000000081526004016114c390612590565b60405180910390fd5b6114d8600083836115b3565b80600260008282546114ea9190611ac9565b92505081905550806000808473ffffffffffffffffffffffffffffffffffffffff1673ffffffffffffffffffffffffffffffffffffffff168152602001908152602001600020600082825401925050819055508173ffffffffffffffffffffffffffffffffffffffff16600073ffffffffffffffffffffffffffffffffffffffff167fddf252ad1be2c89b69c2b068fc378daa952ba7f163c4a11628f55a4df523b3ef8360405161159b91906116e6565b60405180910390a36115af600083836115b8565b5050565b505050565b505050565b600081519050919050565b600082825260208201905092915050565b60005b838110156115f75780820151818401526020810190506115dc565b60008484015250505050565b6000601f19601f8301169050919050565b600061161f826115bd565b61162981856115c8565b93506116398185602086016115d9565b61164281611603565b840191505092915050565b600060208201905081810360008301526116678184611614565b905092915050565b600080fd5b6000819050919050565b61168781611674565b811461169257600080fd5b50565b6000813590506116a48161167e565b92915050565b6000602082840312156116c0576116bf61166f565b5b60006116ce84828501611695565b91505092915050565b6116e081611674565b82525050565b60006020820190506116fb60008301846116d7565b92915050565b600073ffffffffffffffffffffffffffffffffffffffff82169050919050565b600061172c82611701565b9050919050565b61173c81611721565b811461174757600080fd5b50565b60008135905061175981611733565b92915050565b600080604083850312156117765761177561166f565b5b60006117848582860161174a565b925050602061179585828601611695565b9150509250929050565b60008115159050919050565b6117b48161179f565b82525050565b60006020820190506117cf60008301846117ab565b92915050565b60006080820190506117ea60008301876117ab565b6117f760208301866116d7565b61180460408301856116d7565b61181160608301846116d7565b95945050505050565b6000806000606084860312156118335761183261166f565b5b60006118418682870161174a565b93505060206118528682870161174a565b925050604061186386828701611695565b9150509250925092565b600060ff82169050919050565b6118838161186d565b82525050565b600060208201905061189e600083018461187a565b92915050565b6000602082840312156118ba576118b961166f565b5b60006118c88482850161174a565b91505092915050565b600080604083850312156118e8576118e761166f565b5b60006118f685828601611695565b925050602061190785828601611695565b9150509250929050565b61191a81611721565b82525050565b60006020820190506119356000830184611911565b92915050565b6000806000606084860312156119545761195361166f565b5b600061196286828701611695565b935050602061197386828701611695565b925050604061198486828701611695565b9150509250925092565b600080604083850312156119a5576119a461166f565b5b60006119b38582860161174a565b92505060206119c48582860161174a565b9150509250929050565b7f4e487b7100000000000000000000000000000000000000000000000000000000600052602260045260246000fd5b60006002820490506001821680611a1557607f821691505b602082108103611a2857611a276119ce565b5b50919050565b7f4e6f2066756e647320746f207769746864726177000000000000000000000000600082015250565b6000611a646014836115c8565b9150611a6f82611a2e565b602082019050919050565b60006020820190508181036000830152611a9381611a57565b9050919050565b7f4e487b7100000000000000000000000000000000000000000000000000000000600052601160045260246000fd5b6000611ad482611674565b9150611adf83611674565b9250828201905080821115611af757611af6611a9a565b5b92915050565b7f50726f706572747920646f6573206e6f74206578697374000000000000000000600082015250565b6000611b336017836115c8565b9150611b3e82611afd565b602082019050919050565b60006020820190508181036000830152611b6281611b26565b9050919050565b7f416d6f756e74206d7573742062652067726561746572207468616e2030000000600082015250565b6000611b9f601d836115c8565b9150611baa82611b69565b602082019050919050565b60006020820190508181036000830152611bce81611b92565b9050919050565b7f4e6f7420656e6f75676820746f6b656e7320617661696c61626c650000000000600082015250565b6000611c0b601b836115c8565b9150611c1682611bd5565b602082019050919050565b60006020820190508181036000830152611c3a81611bfe565b9050919050565b60008160011c9050919050565b6000808291508390505b6001851115611c9857808604811115611c7457611c73611a9a565b5b6001851615611c835780820291505b8081029050611c9185611c41565b9450611c58565b94509492505050565b600082611cb15760019050611d6d565b81611cbf5760009050611d6d565b8160018114611cd55760028114611cdf57611d0e565b6001915050611d6d565b60ff841115611cf157611cf0611a9a565b5b8360020a915084821115611d0857611d07611a9a565b5b50611d6d565b5060208310610133831016604e8410600b8410161715611d435782820a905083811115611d3e57611d3d611a9a565b5b611d6d565b611d508484846001611c4e565b92509050818404811115611d6757611d66611a9a565b5b81810290505b9392505050565b6000611d7f82611674565b9150611d8a8361186d565b9250611db77fffffffffffffffffffffffffffffffffffffffffffffffffffffffffffffffff8484611ca1565b905092915050565b6000611dca82611674565b9150611dd583611674565b9250828202611de381611674565b91508282048414831517611dfa57611df9611a9a565b5b5092915050565b7f4e487b7100000000000000000000000000000000000000000000000000000000600052601260045260246000fd5b6000611e3b82611674565b9150611e4683611674565b925082611e5657611e55611e01565b5b828204905092915050565b7f496e73756666696369656e74207061796d656e74000000000000000000000000600082015250565b6000611e976014836115c8565b9150611ea282611e61565b602082019050919050565b60006020820190508181036000830152611ec681611e8a565b9050919050565b6000611ed882611674565b9150611ee383611674565b9250828203905081811115611efb57611efa611a9a565b5b92915050565b7f50726f706572747920616c726561647920746f6b656e697a6564000000000000600082015250565b6000611f37601a836115c8565b9150611f4282611f01565b602082019050919050565b60006020820190508181036000830152611f6681611f2a565b9050919050565b7f537570706c79206d7573742062652067726561746572207468616e2030000000600082015250565b6000611fa3601d836115c8565b9150611fae82611f6d565b602082019050919050565b60006020820190508181036000830152611fd281611f96565b9050919050565b7f5072696365206d7573742062652067726561746572207468616e203000000000600082015250565b600061200f601c836115c8565b915061201a82611fd9565b602082019050919050565b6000602082019050818103600083015261203e81612002565b9050919050565b600060408201905061205a60008301856116d7565b61206760208301846116d7565b9392505050565b7f45524332303a2064656372656173656420616c6c6f77616e63652062656c6f7760008201527f207a65726f000000000000000000000000000000000000000000000000000000602082015250565b60006120ca6025836115c8565b91506120d58261206e565b604082019050919050565b600060208201905081810360008301526120f9816120bd565b9050919050565b7f4f776e61626c653a206e6577206f776e657220697320746865207a65726f206160008201527f6464726573730000000000000000000000000000000000000000000000000000602082015250565b600061215c6026836115c8565b915061216782612100565b604082019050919050565b6000602082019050818103600083015261218b8161214f565b9050919050565b7f45524332303a20617070726f76652066726f6d20746865207a65726f2061646460008201527f7265737300000000000000000000000000000000000000000000000000000000602082015250565b60006121ee6024836115c8565b91506121f982612192565b604082019050919050565b6000602082019050818103600083015261221d816121e1565b9050919050565b7f45524332303a20617070726f766520746f20746865207a65726f20616464726560008201527f7373000000000000000000000000000000000000000000000000000000000000602082015250565b60006122806022836115c8565b915061228b82612224565b604082019050919050565b600060208201905081810360008301526122af81612273565b9050919050565b7f45524332303a20696e73756666696369656e7420616c6c6f77616e6365000000600082015250565b60006122ec601d836115c8565b91506122f7826122b6565b602082019050919050565b6000602082019050818103600083015261231b816122df565b9050919050565b7f45524332303a207472616e736665722066726f6d20746865207a65726f20616460008201527f6472657373000000000000000000000000000000000000000000000000000000602082015250565b600061237e6025836115c8565b915061238982612322565b604082019050919050565b600060208201905081810360008301526123ad81612371565b9050919050565b7f45524332303a207472616e7366657220746f20746865207a65726f206164647260008201527f6573730000000000000000000000000000000000000000000000000000000000602082015250565b60006124106023836115c8565b915061241b826123b4565b604082019050919050565b6000602082019050818103600083015261243f81612403565b9050919050565b7f45524332303a207472616e7366657220616d6f756e742065786365656473206260008201527f616c616e63650000000000000000000000000000000000000000000000000000602082015250565b60006124a26026836115c8565b91506124ad82612446565b604082019050919050565b600060208201905081810360008301526124d181612495565b9050919050565b7f4f776e61626c653a2063616c6c6572206973206e6f7420746865206f776e6572600082015250565b600061250e6020836115c8565b9150612519826124d8565b602082019050919050565b6000602082019050818103600083015261253d81612501565b9050919050565b7f45524332303a206d696e7420746f20746865207a65726f206164647265737300600082015250565b600061257a601f836115c8565b915061258582612544565b602082019050919050565b600060208201905081810360008301526125a98161256d565b905091905056fea2646970667358221220dec596db8bc98400ef635353f033d3b4f74bc12a99e3b4740d5fc02529f8911764736f6c63430008130033",
  "linkReferences": {},
  "deployedLinkReferences": {}
}