{
  "_format": "hh-sol-artifact-1",
  "contractName": "RealEstateToken",
  "sourceName": "contracts/RealEstateToken.sol",
  "abi": [
    {
      "inputs": [],
      "stateMutability": "nonpayable",
      "type": "constructor"
    },
    {
      "anonymous": false,
      "inputs": [
        {
          "indexed": true,
          "internalType": "address",
          "name": "owner",
          "type": "address"
        },
        {
          "indexed": true,
          "internalType": "address",
          "name": "spender",
          "type": "address"
        },
        {
          "indexed": false,
          "internalType": "uint256",
          "name": "value",
          "type": "uint256"
        }
      ],
      "name": "Approval",
      "type": "event"
    },
    {
      "anonymous": false,
      "inputs": [
        {
          "indexed": true,
          "internalType": "address",
          "name": "previousOwner",
          "type": "address"
        },
        {
          "indexed": true,
          "internalType": "address",
          "name": "newOwner",
          "type": "address"
        }
      ],
      "name": "OwnershipTransferred",
      "type": "event"
    },
    {
      "anonymous": false,
      "inputs": [
        {
          "indexed": true,
          "internalType": "uint256",
          "name": "propertyId",
          "type": "uint256"
        },
        {
          "indexed": false,
          "internalType": "uint256",
          "name": "supply",
          "type": "uint256"
        },
        {
          "indexed": false,
          "internalType": "uint256",
          "name": "pricePerToken",
          "type": "uint256"
        }
      ],
      "name": "PropertyTokenized",
      "type": "event"
    },
    {
      "anonymous": false,
      "inputs": [
        {
          "indexed": true,
          "internalType": "address",
          "name": "buyer",
          "type": "address"
        },
        {
          "indexed": true,
          "internalType": "uint256",
          "name": "propertyId",
          "type": "uint256"
        },
        {
          "indexed": false,
          "internalType": "uint256",
          "name": "amount",
          "type": "uint256"
        }
      ],
      "name": "TokensPurchased",
      "type": "event"
    },
    {
      "anonymous": false,
      "inputs": [
        {
          "indexed": true,
          "internalType": "address",
          "name": "from",
          "type": "address"
        },
        {
          "indexed": true,
          "internalType": "address",
          "name": "to",
          "type": "address"
        },
        {
          "indexed": false,
          "internalType": "uint256",
          "name": "value",
          "type": "uint256"
        }
      ],
      "name": "Transfer",
      "type": "event"
    },
    {
      "inputs": [
        {
          "internalType": "address",
          "name": "owner",
          "type": "address"
        },
        {
          "internalType": "address",
          "name": "spender",
          "type": "address"
        }
      ],
      "name": "allowance",
      "outputs": [
        {
          "internalType": "uint256",
          "name": "",
          "type": "uint256"
        }
      ],
      "stateMutability": "view",
      "type": "function"
    },
    {
      "inputs": [
        {
          "internalType": "address",
          "name": "spender",
          "type": "address"
        },
        {
          "internalType": "uint256",
          "name": "amount",
          "type": "uint256"
        }
      ],
      "name": "approve",
      "outputs": [
        {
          "internalType": "bool",
          "name": "",
          "type": "bool"
        }
      ],
      "stateMutability": "nonpayable",
      "type": "function"
    },
    {
      "inputs": [
        {
          "internalType": "address",
          "name": "account",
          "type": "address"
        }
      ],
      "name": "balanceOf",
      "outputs": [
        {
          "internalType": "uint256",
          "name": "",
          "type": "uint256"
        }
      ],
      "stateMutability": "view",
      "type": "function"
    },
    {
      "inputs": [],
      "name": "decimals",
      "outputs": [
        {
          "internalType": "uint8",
          "name": "",
          "type": "uint8"
        }
      ],
      "stateMutability": "view",
      "type": "function"
    },
    {
      "inputs": [
        {
          "internalType": "address",
          "name": "spender",
          "type": "address"
        },
        {
          "internalType": "uint256",
          "name": "subtractedValue",
          "type": "uint256"
        }
      ],
      "name": "decreaseAllowance",
      "outputs": [
        {
          "internalType": "bool",
          "name": "",
          "type": "bool"
        }
      ],
      "stateMutability": "nonpayable",
      "type": "function"
    },
    {
      "inputs": [
        {
          "internalType": "uint256",
          "name": "propertyId",
          "type": "uint256"
        }
      ],
      "name": "getPropertyDetails",
      "outputs": [
        {
          "internalType": "bool",
          "name": "exists",
          "type": "bool"
        },
        {
          "internalType": "uint256",
          "name": "supply",
          "type": "uint256"
        },
        {
          "internalType": "uint256",
          "name": "pricePerToken",
          "type": "uint256"
        },
        {
          "internalType": "uint256",
          "name": "availableTokens",
          "type": "uint256"
        }
      ],
      "stateMutability": "view",
      "type": "function"
    },
    {
      "inputs": [
        {
          "internalType": "address",
          "name": "spender",
          "type": "address"
        },
        {
          "internalType": "uint256",
          "name": "addedValue",
          "type": "uint256"
        }
      ],
      "name": "increaseAllowance",
      "outputs": [
        {
          "internalType": "bool",
          "name": "",
          "type": "bool"
        }
      ],
      "stateMutability": "nonpayable",
      "type": "function"
    },
    {
      "inputs": [],
      "name": "name",
      "outputs": [
        {
          "internalType": "string",
          "name": "",
          "type": "string"
        }
      ],
      "stateMutability": "view",
      "type": "function"
    },
    {
      "inputs": [],
      "name": "owner",
      "outputs": [
        {
          "internalType": "address",
          "name": "",
          "type": "address"
        }
      ],
      "stateMutability": "view",
      "type": "function"
    },
    {
      "inputs": [
        {
          "internalType": "uint256",
          "name": "",
          "type": "uint256"
        }
      ],
      "name": "propertyExists",
      "outputs": [
        {
          "internalType": "bool",
          "name": "",
          "type": "bool"
        }
      ],
      "stateMutability": "view",
      "type": "function"
    },
    {
      "inputs": [
        {
          "internalType": "uint256",
          "name": "",
          "type": "uint256"
        }
      ],
      "name": "propertyToPrice",
      "outputs": [
        {
          "internalType": "uint256",
          "name": "",
          "type": "uint256"
        }
      ],
      "stateMutability": "view",
      "type": "function"
    },
    {
      "inputs": [
        {
          "internalType": "uint256",
          "name": "",
          "type": "uint256"
        }
      ],
      "name": "propertyToSupply",
      "outputs": [
        {
          "internalType": "uint256",
          "name": "",
          "type": "uint256"
        }
      ],
      "stateMutability": "view",
      "type": "function"
    },
    {
      "inputs": [
        {
          "internalType": "uint256",
          "name": "propertyId",
          "type": "uint256"
        },
        {
          "internalType": "uint256",
          "name": "amount",
          "type": "uint256"
        }
      ],
      "name": "purchaseTokens",
      "outputs": [],
      "stateMutability": "payable",
      "type": "function"
    },
    {
      "inputs": [],
      "name": "renounceOwnership",
      "outputs": [],
      "stateMutability": "nonpayable",
      "type": "function"
    },
    {
      "inputs": [],
      "name": "symbol",
      "outputs": [
        {
          "internalType": "string",
          "name": "",
          "type": "string"
        }
      ],
      "stateMutability": "view",
      "type": "function"
    },
    {
      "inputs": [
        {
          "internalType": "uint256",
          "name": "propertyId",
          "type": "uint256"
        },
        {
          "internalType": "uint256",
          "name": "supply",
          "type": "uint256"
        },
        {
          "internalType": "uint256",
          "name": "pricePerToken",
          "type": "uint256"
        }
      ],
      "name": "tokenizeProperty",
      "outputs": [],
      "stateMutability": "nonpayable",
      "type": "function"
    },
    {
      "inputs": [],
      "name": "totalSupply",
      "outputs": [
        {
          "internalType": "uint256",
          "name": "",
          "type": "uint256"
        }
      ],
      "stateMutability": "view",
      "type": "function"
    },
    {
      "inputs": [
        {
          "internalType": "address",
          "name": "to",
          "type": "address"
        },
        {
          "internalType": "uint256",
          "name": "amount",
          "type": "uint256"
        }
      ],
      "name": "transfer",
      "outputs": [
        {
          "internalType": "bool",
          "name": "",
          "type": "bool"
        }
      ],
      "stateMutability": "nonpayable",
      "type": "function"
    },
    {
      "inputs": [
        {
          "internalType": "address",
          "name": "from",
          "type": "address"
        },
        {
          "internalType": "address",
          "name": "to",
          "type": "address"
        },
        {
          "internalType": "uint256",
          "name": "amount",
          "type": "uint256"
        }
      ],
      "name": "transferFrom",
      "outputs": [
        {
          "internalType": "bool",
          "name": "",
          "type": "bool"
        }
      ],
      "stateMutability": "nonpayable",
      "type": "function"
    },
    {
      "inputs": [
        {
          "internalType": "address",
          "name": "newOwner",
          "type": "address"
        }
      ],
      "name": "transferOwnership",
      "outputs": [],
      "stateMutability": "nonpayable",
      "type": "function"
    },
    {
      "inputs": [],
      "name": "withdrawFunds",
      "outputs": [],
      "stateMutability": "nonpayable",
      "type": "function"
    }
  ],
  "bytecode": "0x60806040523480156200001157600080fd5b506040518060400160405280601181526020017f5265616c2045737461746520546f6b656e0000000000000000000000000000008152506040518060400160405280600381526020017f524554000000000000000000000000000000000000000000000000000000000081525081600390816200008f919062000412565b508060049081620000a1919062000412565b505050620000c4620000b8620000ca60201b60201c565b620000d260201b60201c565b620004f9565b600033905090565b6000600560009054906101000a900473ffffffffffffffffffffffffffffffffffffffff16905081600560006101000a81548173ffffffffffffffffffffffffffffffffffffffff021916908373ffffffffffffffffffffffffffffffffffffffff1602179055508173ffffffffffffffffffffffffffffffffffffffff168173ffffffffffffffffffffffffffffffffffffffff167f8be0079c531659141344cd1fd0a4f28419497f9722a3daafe3b4186f6b6457e060405160405180910390a35050565b600081519050919050565b7f4e487b7100000000000000000000000000000000000000000000000000000000600052604160045260246000fd5b7f4e487b7100000000000000000000000000000000000000000000000000000000600052602260045260246000fd5b600060028204905060018216806200021a57607f821691505b60208210810362000230576200022f620001d2565b5b50919050565b60008190508160005260206000209050919050565b60006020601f8301049050919050565b600082821b905092915050565b6000600883026200029a7fffffffffffffffffffffffffffffffffffffffffffffffffffffffffffffffff826200025b565b620002a686836200025b565b95508019841693508086168417925050509392505050565b6000819050919050565b6000819050919050565b6000620002f3620002ed620002e784620002be565b620002c8565b620002be565b9050919050565b6000819050919050565b6200030f83620002d2565b620003276200031e82620002fa565b84845462000268565b825550505050565b600090565b6200033e6200032f565b6200034b81848462000304565b505050565b5b8181101562000373576200036760008262000334565b60018101905062000351565b5050565b601f821115620003c2576200038c8162000236565b62000397846200024b565b81016020851015620003a7578190505b620003bf620003b6856200024b565b83018262000350565b50505b505050565b600082821c905092915050565b6000620003e760001984600802620003c7565b1980831691505092915050565b6000620004028383620003d4565b9150826002028217905092915050565b6200041d8262000198565b67ffffffffffffffff811115620004395762000438620001a3565b5b62000445825462000201565b6200045282828562000377565b600060209050601f8311600181146200048a576000841562000475578287015190505b620004818582620003f4565b865550620004f1565b601f1984166200049a8662000236565b60005b82811015620004c4578489015182556001820191506020850194506020810190506200049d565b86831015620004e45784890151620004e0601f891682620003d4565b8355505b6001600288020188555050505b505050505050565b6123ea80620005096000396000f3fe60806040526004361061012a5760003560e01c80634a164732116100ab57806395d89b411161006f57806395d89b4114610410578063997425081461043b578063a457c2d714610464578063a9059cbb146104a1578063dd62ed3e146104de578063f2fde38b1461051b5761012a565b80634a1647321461033857806370a0823114610375578063715018a6146103b25780638bf0af3e146103c95780638da5cb5b146103e55761012a565b806323b872dd116100f257806323b872dd1461023f57806324600fc31461027c578063249f4b9b14610293578063313ce567146102d057806339509351146102fb5761012a565b806306fdde031461012f5780630953e6371461015a578063095ea7b314610197578063126dbe43146101d457806318160ddd14610214575b600080fd5b34801561013b57600080fd5b50610144610544565b604051610151919061162f565b60405180910390f35b34801561016657600080fd5b50610181600480360381019061017c919061168c565b6105d6565b60405161018e91906116c8565b60405180910390f35b3480156101a357600080fd5b506101be60048036038101906101b99190611741565b6105ee565b6040516101cb919061179c565b60405180910390f35b3480156101e057600080fd5b506101fb60048036038101906101f6919061168c565b610611565b60405161020b94939291906117b7565b60405180910390f35b34801561022057600080fd5b50610229610678565b60405161023691906116c8565b60405180910390f35b34801561024b57600080fd5b50610266600480360381019061026191906117fc565b610682565b604051610273919061179c565b60405180910390f35b34801561028857600080fd5b506102916106b1565b005b34801561029f57600080fd5b506102ba60048036038101906102b5919061168c565b610752565b6040516102c791906116c8565b60405180910390f35b3480156102dc57600080fd5b506102e561076a565b6040516102f2919061186b565b60405180910390f35b34801561030757600080fd5b50610322600480360381019061031d9190611741565b610773565b60405161032f919061179c565b60405180910390f35b34801561034457600080fd5b5061035f600480360381019061035a919061168c565b6107aa565b60405161036c919061179c565b60405180910390f35b34801561038157600080fd5b5061039c60048036038101906103979190611886565b6107ca565b6040516103a991906116c8565b60405180910390f35b3480156103be57600080fd5b506103c7610812565b005b6103e360048036038101906103de91906118b3565b610826565b005b3480156103f157600080fd5b506103fa610a34565b6040516104079190611902565b60405180910390f35b34801561041c57600080fd5b50610425610a5e565b604051610432919061162f565b60405180910390f35b34801561044757600080fd5b50610462600480360381019061045d919061191d565b610af0565b005b34801561047057600080fd5b5061048b60048036038101906104869190611741565b610c84565b604051610498919061179c565b60405180910390f35b3480156104ad57600080fd5b506104c860048036038101906104c39190611741565b610cfb565b6040516104d5919061179c565b60405180910390f35b3480156104ea57600080fd5b5061050560048036038101906105009190611970565b610d1e565b60405161051291906116c8565b60405180910390f35b34801561052757600080fd5b50610542600480360381019061053d9190611886565b610da5565b005b606060038054610553906119df565b80601f016020809104026020016040519081016040528092919081815260200182805461057f906119df565b80156105cc5780601f106105a1576101008083540402835291602001916105cc565b820191906000526020600020905b8154815290600101906020018083116105af57829003601f168201915b5050505050905090565b60076020528060005260406000206000915090505481565b6000806105f9610e28565b9050610606818585610e30565b600191505092915050565b6000806000806008600086815260200190815260200160002060009054906101000a900460ff1660066000878152602001908152602001600020546007600088815260200190815260200160002054610669306107ca565b93509350935093509193509193565b6000600254905090565b60008061068d610e28565b905061069a858285610ff9565b6106a5858585611085565b60019150509392505050565b6106b96112fb565b600047905060008111610701576040517f08c379a00000000000000000000000000000000000000000000000000000000081526004016106f890611a5c565b60405180910390fd5b610709610a34565b73ffffffffffffffffffffffffffffffffffffffff166108fc829081150290604051600060405180830381858888f1935050505015801561074e573d6000803e3d6000fd5b5050565b60066020528060005260406000206000915090505481565b60006012905090565b60008061077e610e28565b905061079f8185856107908589610d1e565b61079a9190611aab565b610e30565b600191505092915050565b60086020528060005260406000206000915054906101000a900460ff1681565b60008060008373ffffffffffffffffffffffffffffffffffffffff1673ffffffffffffffffffffffffffffffffffffffff168152602001908152602001600020549050919050565b61081a6112fb565b6108246000611379565b565b6008600083815260200190815260200160002060009054906101000a900460ff16610886576040517f08c379a000000000000000000000000000000000000000000000000000000000815260040161087d90611b2b565b60405180910390fd5b600081116108c9576040517f08c379a00000000000000000000000000000000000000000000000000000000081526004016108c090611b97565b60405180910390fd5b806108d3306107ca565b1015610914576040517f08c379a000000000000000000000000000000000000000000000000000000000815260040161090b90611c03565b60405180910390fd5b60006007600084815260200190815260200160002054826109359190611c23565b90508034101561097a576040517f08c379a000000000000000000000000000000000000000000000000000000000815260040161097190611cb1565b60405180910390fd5b610985303384611085565b803411156109e0573373ffffffffffffffffffffffffffffffffffffffff166108fc82346109b39190611cd1565b9081150290604051600060405180830381858888f193505050501580156109de573d6000803e3d6000fd5b505b823373ffffffffffffffffffffffffffffffffffffffff167f8fafebcaf9d154343dad25669bfa277f4fbacd7ac6b0c4fed522580e040a0f3384604051610a2791906116c8565b60405180910390a3505050565b6000600560009054906101000a900473ffffffffffffffffffffffffffffffffffffffff16905090565b606060048054610a6d906119df565b80601f0160208091040260200160405190810160405280929190818152602001828054610a99906119df565b8015610ae65780601f10610abb57610100808354040283529160200191610ae6565b820191906000526020600020905b815481529060010190602001808311610ac957829003601f168201915b5050505050905090565b610af86112fb565b6008600084815260200190815260200160002060009054906101000a900460ff1615610b59576040517f08c379a0000000000000000000000000000000000000000000000000000000008152600401610b5090611d51565b60405180910390fd5b60008211610b9c576040517f08c379a0000000000000000000000000000000000000000000000000000000008152600401610b9390611dbd565b60405180910390fd5b60008111610bdf576040517f08c379a0000000000000000000000000000000000000000000000000000000008152600401610bd690611e29565b60405180910390fd5b81600660008581526020019081526020016000208190555080600760008581526020019081526020016000208190555060016008600085815260200190815260200160002060006101000a81548160ff021916908315150217905550610c45308361143f565b827f9272f3a7f486b8aaf17849dbfb2291fa69a709ba3f6972c15bff5406b9e6a0cc8383604051610c77929190611e49565b60405180910390a2505050565b600080610c8f610e28565b90506000610c9d8286610d1e565b905083811015610ce2576040517f08c379a0000000000000000000000000000000000000000000000000000000008152600401610cd990611ee4565b60405180910390fd5b610cef8286868403610e30565b60019250505092915050565b600080610d06610e28565b9050610d13818585611085565b600191505092915050565b6000600160008473ffffffffffffffffffffffffffffffffffffffff1673ffffffffffffffffffffffffffffffffffffffff16815260200190815260200160002060008373ffffffffffffffffffffffffffffffffffffffff1673ffffffffffffffffffffffffffffffffffffffff16815260200190815260200160002054905092915050565b610dad6112fb565b600073ffffffffffffffffffffffffffffffffffffffff168173ffffffffffffffffffffffffffffffffffffffff1603610e1c576040517f08c379a0000000000000000000000000000000000000000000000000000000008152600401610e1390611f76565b60405180910390fd5b610e2581611379565b50565b600033905090565b600073ffffffffffffffffffffffffffffffffffffffff168373ffffffffffffffffffffffffffffffffffffffff1603610e9f576040517f08c379a0000000000000000000000000000000000000000000000000000000008152600401610e9690612008565b60405180910390fd5b600073ffffffffffffffffffffffffffffffffffffffff168273ffffffffffffffffffffffffffffffffffffffff1603610f0e576040517f08c379a0000000000000000000000000000000000000000000000000000000008152600401610f059061209a565b60405180910390fd5b80600160008573ffffffffffffffffffffffffffffffffffffffff1673ffffffffffffffffffffffffffffffffffffffff16815260200190815260200160002060008473ffffffffffffffffffffffffffffffffffffffff1673ffffffffffffffffffffffffffffffffffffffff168152602001908152602001600020819055508173ffffffffffffffffffffffffffffffffffffffff168373ffffffffffffffffffffffffffffffffffffffff167f8c5be1e5ebec7d5bd14f71427d1e84f3dd0314c0f7b2291e5b200ac8c7c3b92583604051610fec91906116c8565b60405180910390a3505050565b60006110058484610d1e565b90507fffffffffffffffffffffffffffffffffffffffffffffffffffffffffffffffff811461107f5781811015611071576040517f08c379a000000000000000000000000000000000000000000000000000000000815260040161106890612106565b60405180910390fd5b61107e8484848403610e30565b5b50505050565b600073ffffffffffffffffffffffffffffffffffffffff168373ffffffffffffffffffffffffffffffffffffffff16036110f4576040517f08c379a00000000000000000000000000000000000000000000000000000000081526004016110eb90612198565b60405180910390fd5b600073ffffffffffffffffffffffffffffffffffffffff168273ffffffffffffffffffffffffffffffffffffffff1603611163576040517f08c379a000000000000000000000000000000000000000000000000000000000815260040161115a9061222a565b60405180910390fd5b61116e838383611595565b60008060008573ffffffffffffffffffffffffffffffffffffffff1673ffffffffffffffffffffffffffffffffffffffff168152602001908152602001600020549050818110156111f4576040517f08c379a00000000000000000000000000000000000000000000000000000000081526004016111eb906122bc565b60405180910390fd5b8181036000808673ffffffffffffffffffffffffffffffffffffffff1673ffffffffffffffffffffffffffffffffffffffff16815260200190815260200160002081905550816000808573ffffffffffffffffffffffffffffffffffffffff1673ffffffffffffffffffffffffffffffffffffffff168152602001908152602001600020600082825401925050819055508273ffffffffffffffffffffffffffffffffffffffff168473ffffffffffffffffffffffffffffffffffffffff167fddf252ad1be2c89b69c2b068fc378daa952ba7f163c4a11628f55a4df523b3ef846040516112e291906116c8565b60405180910390a36112f584848461159a565b50505050565b611303610e28565b73ffffffffffffffffffffffffffffffffffffffff16611321610a34565b73ffffffffffffffffffffffffffffffffffffffff1614611377576040517f08c379a000000000000000000000000000000000000000000000000000000000815260040161136e90612328565b60405180910390fd5b565b6000600560009054906101000a900473ffffffffffffffffffffffffffffffffffffffff16905081600560006101000a81548173ffffffffffffffffffffffffffffffffffffffff021916908373ffffffffffffffffffffffffffffffffffffffff1602179055508173ffffffffffffffffffffffffffffffffffffffff168173ffffffffffffffffffffffffffffffffffffffff167f8be0079c531659141344cd1fd0a4f28419497f9722a3daafe3b4186f6b6457e060405160405180910390a35050565b600073ffffffffffffffffffffffffffffffffffffffff168273ffffffffffffffffffffffffffffffffffffffff16036114ae576040517f08c379a00000000000000000000000000000000000000000000000000000000081526004016114a590612394565b60405180910390fd5b6114ba60008383611595565b80600260008282546114cc9190611aab565b92505081905550806000808473ffffffffffffffffffffffffffffffffffffffff1673ffffffffffffffffffffffffffffffffffffffff168152602001908152602001600020600082825401925050819055508173ffffffffffffffffffffffffffffffffffffffff16600073ffffffffffffffffffffffffffffffffffffffff167fddf252ad1be2c89b69c2b068fc378daa952ba7f163c4a11628f55a4df523b3ef8360405161157d91906116c8565b60405180910390a36115916000838361159a565b5050565b505050565b505050565b600081519050919050565b600082825260208201905092915050565b60005b838110156115d95780820151818401526020810190506115be565b60008484015250505050565b6000601f19601f8301169050919050565b60006116018261159f565b61160b81856115aa565b935061161b8185602086016115bb565b611624816115e5565b840191505092915050565b6000602082019050818103600083015261164981846115f6565b905092915050565b600080fd5b6000819050919050565b61166981611656565b811461167457600080fd5b50565b60008135905061168681611660565b92915050565b6000602082840312156116a2576116a1611651565b5b60006116b084828501611677565b91505092915050565b6116c281611656565b82525050565b60006020820190506116dd60008301846116b9565b92915050565b600073ffffffffffffffffffffffffffffffffffffffff82169050919050565b600061170e826116e3565b9050919050565b61171e81611703565b811461172957600080fd5b50565b60008135905061173b81611715565b92915050565b6000806040838503121561175857611757611651565b5b60006117668582860161172c565b925050602061177785828601611677565b9150509250929050565b60008115159050919050565b61179681611781565b82525050565b60006020820190506117b1600083018461178d565b92915050565b60006080820190506117cc600083018761178d565b6117d960208301866116b9565b6117e660408301856116b9565b6117f360608301846116b9565b95945050505050565b60008060006060848603121561181557611814611651565b5b60006118238682870161172c565b93505060206118348682870161172c565b925050604061184586828701611677565b9150509250925092565b600060ff82169050919050565b6118658161184f565b82525050565b6000602082019050611880600083018461185c565b92915050565b60006020828403121561189c5761189b611651565b5b60006118aa8482850161172c565b91505092915050565b600080604083850312156118ca576118c9611651565b5b60006118d885828601611677565b92505060206118e985828601611677565b9150509250929050565b6118fc81611703565b82525050565b600060208201905061191760008301846118f3565b92915050565b60008060006060848603121561193657611935611651565b5b600061194486828701611677565b935050602061195586828701611677565b925050604061196686828701611677565b9150509250925092565b6000806040838503121561198757611986611651565b5b60006119958582860161172c565b92505060206119a68582860161172c565b9150509250929050565b7f4e487b7100000000000000000000000000000000000000000000000000000000600052602260045260246000fd5b600060028204905060018216806119f757607f821691505b602082108103611a0a57611a096119b0565b5b50919050565b7f4e6f2066756e647320746f207769746864726177000000000000000000000000600082015250565b6000611a466014836115aa565b9150611a5182611a10565b602082019050919050565b60006020820190508181036000830152611a7581611a39565b9050919050565b7f4e487b7100000000000000000000000000000000000000000000000000000000600052601160045260246000fd5b6000611ab682611656565b9150611ac183611656565b9250828201905080821115611ad957611ad8611a7c565b5b92915050565b7f50726f706572747920646f6573206e6f74206578697374000000000000000000600082015250565b6000611b156017836115aa565b9150611b2082611adf565b602082019050919050565b60006020820190508181036000830152611b4481611b08565b9050919050565b7f416d6f756e74206d7573742062652067726561746572207468616e2030000000600082015250565b6000611b81601d836115aa565b9150611b8c82611b4b565b602082019050919050565b60006020820190508181036000830152611bb081611b74565b9050919050565b7f4e6f7420656e6f75676820746f6b656e7320617661696c61626c650000000000600082015250565b6000611bed601b836115aa565b9150611bf882611bb7565b602082019050919050565b60006020820190508181036000830152611c1c81611be0565b9050919050565b6000611c2e82611656565b9150611c3983611656565b9250828202611c4781611656565b91508282048414831517611c5e57611c5d611a7c565b5b5092915050565b7f496e73756666696369656e74207061796d656e74000000000000000000000000600082015250565b6000611c9b6014836115aa565b9150611ca682611c65565b602082019050919050565b60006020820190508181036000830152611cca81611c8e565b9050919050565b6000611cdc82611656565b9150611ce783611656565b9250828203905081811115611cff57611cfe611a7c565b5b92915050565b7f50726f706572747920616c726561647920746f6b656e697a6564000000000000600082015250565b6000611d3b601a836115aa565b9150611d4682611d05565b602082019050919050565b60006020820190508181036000830152611d6a81611d2e565b9050919050565b7f537570706c79206d7573742062652067726561746572207468616e2030000000600082015250565b6000611da7601d836115aa565b9150611db282611d71565b602082019050919050565b60006020820190508181036000830152611dd681611d9a565b9050919050565b7f5072696365206d7573742062652067726561746572207468616e203000000000600082015250565b6000611e13601c836115aa565b9150611e1e82611ddd565b602082019050919050565b60006020820190508181036000830152611e4281611e06565b9050919050565b6000604082019050611e5e60008301856116b9565b611e6b60208301846116b9565b9392505050565b7f45524332303a2064656372656173656420616c6c6f77616e63652062656c6f7760008201527f207a65726f000000000000000000000000000000000000000000000000000000602082015250565b6000611ece6025836115aa565b9150611ed982611e72565b604082019050919050565b60006020820190508181036000830152611efd81611ec1565b9050919050565b7f4f776e61626c653a206e6577206f776e657220697320746865207a65726f206160008201527f6464726573730000000000000000000000000000000000000000000000000000602082015250565b6000611f606026836115aa565b9150611f6b82611f04565b604082019050919050565b60006020820190508181036000830152611f8f81611f53565b9050919050565b7f45524332303a20617070726f76652066726f6d20746865207a65726f2061646460008201527f7265737300000000000000000000000000000000000000000000000000000000602082015250565b6000611ff26024836115aa565b9150611ffd82611f96565b604082019050919050565b6000602082019050818103600083015261202181611fe5565b9050919050565b7f45524332303a20617070726f766520746f20746865207a65726f20616464726560008201527f7373000000000000000000000000000000000000000000000000000000000000602082015250565b60006120846022836115aa565b915061208f82612028565b604082019050919050565b600060208201905081810360008301526120b381612077565b9050919050565b7f45524332303a20696e73756666696369656e7420616c6c6f77616e6365000000600082015250565b60006120f0601d836115aa565b91506120fb826120ba565b602082019050919050565b6000602082019050818103600083015261211f816120e3565b9050919050565b7f45524332303a207472616e736665722066726f6d20746865207a65726f20616460008201527f6472657373000000000000000000000000000000000000000000000000000000602082015250565b60006121826025836115aa565b915061218d82612126565b604082019050919050565b600060208201905081810360008301526121b181612175565b9050919050565b7f45524332303a207472616e7366657220746f20746865207a65726f206164647260008201527f6573730000000000000000000000000000000000000000000000000000000000602082015250565b60006122146023836115aa565b915061221f826121b8565b604082019050919050565b6000602082019050818103600083015261224381612207565b9050919050565b7f45524332303a207472616e7366657220616d6f756e742065786365656473206260008201527f616c616e63650000000000000000000000000000000000000000000000000000602082015250565b60006122a66026836115aa565b91506122b18261224a565b604082019050919050565b600060208201905081810360008301526122d581612299565b9050919050565b7f4f776e61626c653a2063616c6c6572206973206e6f7420746865206f776e6572600082015250565b60006123126020836115aa565b915061231d826122dc565b602082019050919050565b6000602082019050818103600083015261234181612305565b9050919050565b7f45524332303a206d696e7420746f20746865207a65726f206164647265737300600082015250565b600061237e601f836115aa565b915061238982612348565b602082019050919050565b600060208201905081810360008301526123ad81612371565b905091905056fea26469706673582212207b7f44fa2d89608bb982c55c2dff2efe4117eadf720a5815cb39755ec30f78a764736f6c63430008130033",
  "linkReferences": {},
  "deployedLinkReferences": {}
}